{
  "_format": "hh-sol-artifact-1",
  "contractName": "TouristIdentity",
  "sourceName": "contracts/TouristIdentity.sol",
  "abi": [
    {
      "inputs": [],
      "stateMutability": "nonpayable",
      "type": "constructor"
    },
    {
      "inputs": [],
      "name": "AccessControlBadConfirmation",
      "type": "error"
    },
    {
      "inputs": [
        {
          "internalType": "address",
          "name": "account",
          "type": "address"
        },
        {
          "internalType": "bytes32",
          "name": "neededRole",
          "type": "bytes32"
        }
      ],
      "name": "AccessControlUnauthorizedAccount",
      "type": "error"
    },
    {
      "inputs": [],
      "name": "EnforcedPause",
      "type": "error"
    },
    {
      "inputs": [],
      "name": "ExpectedPause",
      "type": "error"
    },
    {
      "inputs": [],
      "name": "ReentrancyGuardReentrantCall",
      "type": "error"
    },
    {
      "anonymous": false,
      "inputs": [
        {
          "indexed": true,
          "internalType": "uint256",
          "name": "identityId",
          "type": "uint256"
        },
        {
          "indexed": true,
          "internalType": "address",
          "name": "accessor",
          "type": "address"
        },
        {
          "indexed": false,
          "internalType": "string",
          "name": "accessReason",
          "type": "string"
        },
        {
          "indexed": false,
          "internalType": "uint256",
          "name": "timestamp",
          "type": "uint256"
        }
      ],
      "name": "EmergencyAccess",
      "type": "event"
    },
    {
      "anonymous": false,
      "inputs": [
        {
          "indexed": true,
          "internalType": "uint256",
          "name": "identityId",
          "type": "uint256"
        },
        {
          "indexed": true,
          "internalType": "address",
          "name": "touristWallet",
          "type": "address"
        },
        {
          "indexed": false,
          "internalType": "string",
          "name": "touristIdHash",
          "type": "string"
        },
        {
          "indexed": false,
          "internalType": "uint256",
          "name": "timestamp",
          "type": "uint256"
        }
      ],
      "name": "IdentityCreated",
      "type": "event"
    },
    {
      "anonymous": false,
      "inputs": [
        {
          "indexed": true,
          "internalType": "uint256",
          "name": "identityId",
          "type": "uint256"
        },
        {
          "indexed": true,
          "internalType": "address",
          "name": "revokedBy",
          "type": "address"
        },
        {
          "indexed": false,
          "internalType": "string",
          "name": "reason",
          "type": "string"
        },
        {
          "indexed": false,
          "internalType": "uint256",
          "name": "timestamp",
          "type": "uint256"
        }
      ],
      "name": "IdentityRevoked",
      "type": "event"
    },
    {
      "anonymous": false,
      "inputs": [
        {
          "indexed": true,
          "internalType": "uint256",
          "name": "identityId",
          "type": "uint256"
        },
        {
          "indexed": true,
          "internalType": "address",
          "name": "updatedBy",
          "type": "address"
        },
        {
          "indexed": false,
          "internalType": "uint256",
          "name": "timestamp",
          "type": "uint256"
        }
      ],
      "name": "IdentityUpdated",
      "type": "event"
    },
    {
      "anonymous": false,
      "inputs": [
        {
          "indexed": true,
          "internalType": "uint256",
          "name": "identityId",
          "type": "uint256"
        },
        {
          "indexed": true,
          "internalType": "address",
          "name": "verifier",
          "type": "address"
        },
        {
          "indexed": false,
          "internalType": "uint256",
          "name": "timestamp",
          "type": "uint256"
        }
      ],
      "name": "IdentityVerified",
      "type": "event"
    },
    {
      "anonymous": false,
      "inputs": [
        {
          "indexed": false,
          "internalType": "address",
          "name": "account",
          "type": "address"
        }
      ],
      "name": "Paused",
      "type": "event"
    },
    {
      "anonymous": false,
      "inputs": [
        {
          "indexed": true,
          "internalType": "bytes32",
          "name": "role",
          "type": "bytes32"
        },
        {
          "indexed": true,
          "internalType": "bytes32",
          "name": "previousAdminRole",
          "type": "bytes32"
        },
        {
          "indexed": true,
          "internalType": "bytes32",
          "name": "newAdminRole",
          "type": "bytes32"
        }
      ],
      "name": "RoleAdminChanged",
      "type": "event"
    },
    {
      "anonymous": false,
      "inputs": [
        {
          "indexed": true,
          "internalType": "bytes32",
          "name": "role",
          "type": "bytes32"
        },
        {
          "indexed": true,
          "internalType": "address",
          "name": "account",
          "type": "address"
        },
        {
          "indexed": true,
          "internalType": "address",
          "name": "sender",
          "type": "address"
        }
      ],
      "name": "RoleGranted",
      "type": "event"
    },
    {
      "anonymous": false,
      "inputs": [
        {
          "indexed": true,
          "internalType": "bytes32",
          "name": "role",
          "type": "bytes32"
        },
        {
          "indexed": true,
          "internalType": "address",
          "name": "account",
          "type": "address"
        },
        {
          "indexed": true,
          "internalType": "address",
          "name": "sender",
          "type": "address"
        }
      ],
      "name": "RoleRevoked",
      "type": "event"
    },
    {
      "anonymous": false,
      "inputs": [
        {
          "indexed": true,
          "internalType": "uint256",
          "name": "identityId",
          "type": "uint256"
        },
        {
          "indexed": false,
          "internalType": "uint256",
          "name": "endTimestamp",
          "type": "uint256"
        }
      ],
      "name": "TripEnded",
      "type": "event"
    },
    {
      "anonymous": false,
      "inputs": [
        {
          "indexed": true,
          "internalType": "uint256",
          "name": "identityId",
          "type": "uint256"
        },
        {
          "indexed": false,
          "internalType": "uint256",
          "name": "startTimestamp",
          "type": "uint256"
        }
      ],
      "name": "TripStarted",
      "type": "event"
    },
    {
      "anonymous": false,
      "inputs": [
        {
          "indexed": false,
          "internalType": "address",
          "name": "account",
          "type": "address"
        }
      ],
      "name": "Unpaused",
      "type": "event"
    },
    {
      "inputs": [],
      "name": "DEFAULT_ADMIN_ROLE",
      "outputs": [
        {
          "internalType": "bytes32",
          "name": "",
          "type": "bytes32"
        }
      ],
      "stateMutability": "view",
      "type": "function"
    },
    {
      "inputs": [],
      "name": "EMERGENCY_ROLE",
      "outputs": [
        {
          "internalType": "bytes32",
          "name": "",
          "type": "bytes32"
        }
      ],
      "stateMutability": "view",
      "type": "function"
    },
    {
      "inputs": [],
      "name": "GOVERNMENT_ROLE",
      "outputs": [
        {
          "internalType": "bytes32",
          "name": "",
          "type": "bytes32"
        }
      ],
      "stateMutability": "view",
      "type": "function"
    },
    {
      "inputs": [],
      "name": "KYC_PROVIDER_ROLE",
      "outputs": [
        {
          "internalType": "bytes32",
          "name": "",
          "type": "bytes32"
        }
      ],
      "stateMutability": "view",
      "type": "function"
    },
    {
      "inputs": [],
      "name": "TOURISM_ROLE",
      "outputs": [
        {
          "internalType": "bytes32",
          "name": "",
          "type": "bytes32"
        }
      ],
      "stateMutability": "view",
      "type": "function"
    },
    {
      "inputs": [],
      "name": "VERIFIER_ROLE",
      "outputs": [
        {
          "internalType": "bytes32",
          "name": "",
          "type": "bytes32"
        }
      ],
      "stateMutability": "view",
      "type": "function"
    },
    {
      "inputs": [
        {
          "internalType": "uint256",
          "name": "_identityId",
          "type": "uint256"
        },
        {
          "components": [
            {
              "internalType": "string",
              "name": "nameHash",
              "type": "string"
            },
            {
              "internalType": "string",
              "name": "relationship",
              "type": "string"
            },
            {
              "internalType": "string",
              "name": "phoneHash",
              "type": "string"
            },
            {
              "internalType": "string",
              "name": "emailHash",
              "type": "string"
            },
            {
              "internalType": "bool",
              "name": "isPrimary",
              "type": "bool"
            }
          ],
          "internalType": "struct TouristIdentity.EmergencyContact",
          "name": "_contact",
          "type": "tuple"
        }
      ],
      "name": "addEmergencyContact",
      "outputs": [],
      "stateMutability": "nonpayable",
      "type": "function"
    },
    {
      "inputs": [
        {
          "internalType": "address",
          "name": "_touristWallet",
          "type": "address"
        },
        {
          "internalType": "string",
          "name": "_touristIdHash",
          "type": "string"
        },
        {
          "components": [
            {
              "internalType": "string",
              "name": "documentType",
              "type": "string"
            },
            {
              "internalType": "string",
              "name": "documentHash",
              "type": "string"
            },
            {
              "internalType": "string",
              "name": "fullNameHash",
              "type": "string"
            },
            {
              "internalType": "string",
              "name": "nationalityHash",
              "type": "string"
            },
            {
              "internalType": "uint256",
              "name": "verificationTimestamp",
              "type": "uint256"
            },
            {
              "internalType": "address",
              "name": "verifiedBy",
              "type": "address"
            },
            {
              "internalType": "bool",
              "name": "isVerified",
              "type": "bool"
            },
            {
              "internalType": "uint256",
              "name": "expiryTimestamp",
              "type": "uint256"
            },
            {
              "internalType": "uint256",
              "name": "trustScore",
              "type": "uint256"
            },
            {
              "internalType": "string",
              "name": "biometricHash",
              "type": "string"
            }
          ],
          "internalType": "struct TouristIdentity.KYCData",
          "name": "_kycData",
          "type": "tuple"
        },
        {
          "components": [
            {
              "internalType": "string",
              "name": "itineraryHash",
              "type": "string"
            },
            {
              "internalType": "uint256",
              "name": "startTimestamp",
              "type": "uint256"
            },
            {
              "internalType": "uint256",
              "name": "endTimestamp",
              "type": "uint256"
            },
            {
              "internalType": "string",
              "name": "purpose",
              "type": "string"
            },
            {
              "internalType": "uint8",
              "name": "groupSize",
              "type": "uint8"
            },
            {
              "internalType": "string",
              "name": "accommodationHash",
              "type": "string"
            }
          ],
          "internalType": "struct TouristIdentity.TripData",
          "name": "_tripData",
          "type": "tuple"
        }
      ],
      "name": "createIdentity",
      "outputs": [
        {
          "internalType": "uint256",
          "name": "",
          "type": "uint256"
        }
      ],
      "stateMutability": "nonpayable",
      "type": "function"
    },
    {
      "inputs": [
        {
          "internalType": "uint256",
          "name": "_identityId",
          "type": "uint256"
        },
        {
          "internalType": "string",
          "name": "_accessReason",
          "type": "string"
        }
      ],
      "name": "emergencyAccess",
      "outputs": [
        {
          "components": [
            {
              "internalType": "uint256",
              "name": "identityId",
              "type": "uint256"
            },
            {
              "internalType": "address",
              "name": "touristWallet",
              "type": "address"
            },
            {
              "internalType": "string",
              "name": "touristIdHash",
              "type": "string"
            },
            {
              "components": [
                {
                  "internalType": "string",
                  "name": "documentType",
                  "type": "string"
                },
                {
                  "internalType": "string",
                  "name": "documentHash",
                  "type": "string"
                },
                {
                  "internalType": "string",
                  "name": "fullNameHash",
                  "type": "string"
                },
                {
                  "internalType": "string",
                  "name": "nationalityHash",
                  "type": "string"
                },
                {
                  "internalType": "uint256",
                  "name": "verificationTimestamp",
                  "type": "uint256"
                },
                {
                  "internalType": "address",
                  "name": "verifiedBy",
                  "type": "address"
                },
                {
                  "internalType": "bool",
                  "name": "isVerified",
                  "type": "bool"
                },
                {
                  "internalType": "uint256",
                  "name": "expiryTimestamp",
                  "type": "uint256"
                },
                {
                  "internalType": "uint256",
                  "name": "trustScore",
                  "type": "uint256"
                },
                {
                  "internalType": "string",
                  "name": "biometricHash",
                  "type": "string"
                }
              ],
              "internalType": "struct TouristIdentity.KYCData",
              "name": "kycData",
              "type": "tuple"
            },
            {
              "components": [
                {
                  "internalType": "string",
                  "name": "itineraryHash",
                  "type": "string"
                },
                {
                  "internalType": "uint256",
                  "name": "startTimestamp",
                  "type": "uint256"
                },
                {
                  "internalType": "uint256",
                  "name": "endTimestamp",
                  "type": "uint256"
                },
                {
                  "internalType": "string",
                  "name": "purpose",
                  "type": "string"
                },
                {
                  "internalType": "uint8",
                  "name": "groupSize",
                  "type": "uint8"
                },
                {
                  "internalType": "string",
                  "name": "accommodationHash",
                  "type": "string"
                }
              ],
              "internalType": "struct TouristIdentity.TripData",
              "name": "tripData",
              "type": "tuple"
            },
            {
              "components": [
                {
                  "internalType": "string",
                  "name": "nameHash",
                  "type": "string"
                },
                {
                  "internalType": "string",
                  "name": "relationship",
                  "type": "string"
                },
                {
                  "internalType": "string",
                  "name": "phoneHash",
                  "type": "string"
                },
                {
                  "internalType": "string",
                  "name": "emailHash",
                  "type": "string"
                },
                {
                  "internalType": "bool",
                  "name": "isPrimary",
                  "type": "bool"
                }
              ],
              "internalType": "struct TouristIdentity.EmergencyContact[]",
              "name": "emergencyContacts",
              "type": "tuple[]"
            },
            {
              "internalType": "uint256",
              "name": "createdTimestamp",
              "type": "uint256"
            },
            {
              "internalType": "uint256",
              "name": "lastUpdatedTimestamp",
              "type": "uint256"
            },
            {
              "internalType": "bool",
              "name": "isActive",
              "type": "bool"
            },
            {
              "internalType": "bool",
              "name": "isRevoked",
              "type": "bool"
            }
          ],
          "internalType": "struct TouristIdentity.DigitalIdentity",
          "name": "",
          "type": "tuple"
        }
      ],
      "stateMutability": "nonpayable",
      "type": "function"
    },
    {
      "inputs": [
        {
          "internalType": "uint256",
          "name": "_identityId",
          "type": "uint256"
        }
      ],
      "name": "endTrip",
      "outputs": [],
      "stateMutability": "nonpayable",
      "type": "function"
    },
    {
      "inputs": [
        {
          "internalType": "uint256",
          "name": "_identityId",
          "type": "uint256"
        }
      ],
      "name": "getIdentity",
      "outputs": [
        {
          "components": [
            {
              "internalType": "uint256",
              "name": "identityId",
              "type": "uint256"
            },
            {
              "internalType": "address",
              "name": "touristWallet",
              "type": "address"
            },
            {
              "internalType": "string",
              "name": "touristIdHash",
              "type": "string"
            },
            {
              "components": [
                {
                  "internalType": "string",
                  "name": "documentType",
                  "type": "string"
                },
                {
                  "internalType": "string",
                  "name": "documentHash",
                  "type": "string"
                },
                {
                  "internalType": "string",
                  "name": "fullNameHash",
                  "type": "string"
                },
                {
                  "internalType": "string",
                  "name": "nationalityHash",
                  "type": "string"
                },
                {
                  "internalType": "uint256",
                  "name": "verificationTimestamp",
                  "type": "uint256"
                },
                {
                  "internalType": "address",
                  "name": "verifiedBy",
                  "type": "address"
                },
                {
                  "internalType": "bool",
                  "name": "isVerified",
                  "type": "bool"
                },
                {
                  "internalType": "uint256",
                  "name": "expiryTimestamp",
                  "type": "uint256"
                },
                {
                  "internalType": "uint256",
                  "name": "trustScore",
                  "type": "uint256"
                },
                {
                  "internalType": "string",
                  "name": "biometricHash",
                  "type": "string"
                }
              ],
              "internalType": "struct TouristIdentity.KYCData",
              "name": "kycData",
              "type": "tuple"
            },
            {
              "components": [
                {
                  "internalType": "string",
                  "name": "itineraryHash",
                  "type": "string"
                },
                {
                  "internalType": "uint256",
                  "name": "startTimestamp",
                  "type": "uint256"
                },
                {
                  "internalType": "uint256",
                  "name": "endTimestamp",
                  "type": "uint256"
                },
                {
                  "internalType": "string",
                  "name": "purpose",
                  "type": "string"
                },
                {
                  "internalType": "uint8",
                  "name": "groupSize",
                  "type": "uint8"
                },
                {
                  "internalType": "string",
                  "name": "accommodationHash",
                  "type": "string"
                }
              ],
              "internalType": "struct TouristIdentity.TripData",
              "name": "tripData",
              "type": "tuple"
            },
            {
              "components": [
                {
                  "internalType": "string",
                  "name": "nameHash",
                  "type": "string"
                },
                {
                  "internalType": "string",
                  "name": "relationship",
                  "type": "string"
                },
                {
                  "internalType": "string",
                  "name": "phoneHash",
                  "type": "string"
                },
                {
                  "internalType": "string",
                  "name": "emailHash",
                  "type": "string"
                },
                {
                  "internalType": "bool",
                  "name": "isPrimary",
                  "type": "bool"
                }
              ],
              "internalType": "struct TouristIdentity.EmergencyContact[]",
              "name": "emergencyContacts",
              "type": "tuple[]"
            },
            {
              "internalType": "uint256",
              "name": "createdTimestamp",
              "type": "uint256"
            },
            {
              "internalType": "uint256",
              "name": "lastUpdatedTimestamp",
              "type": "uint256"
            },
            {
              "internalType": "bool",
              "name": "isActive",
              "type": "bool"
            },
            {
              "internalType": "bool",
              "name": "isRevoked",
              "type": "bool"
            }
          ],
          "internalType": "struct TouristIdentity.DigitalIdentity",
          "name": "",
          "type": "tuple"
        }
      ],
      "stateMutability": "view",
      "type": "function"
    },
    {
      "inputs": [
        {
          "internalType": "address",
          "name": "_wallet",
          "type": "address"
        }
      ],
      "name": "getIdentityByWallet",
      "outputs": [
        {
          "components": [
            {
              "internalType": "uint256",
              "name": "identityId",
              "type": "uint256"
            },
            {
              "internalType": "address",
              "name": "touristWallet",
              "type": "address"
            },
            {
              "internalType": "string",
              "name": "touristIdHash",
              "type": "string"
            },
            {
              "components": [
                {
                  "internalType": "string",
                  "name": "documentType",
                  "type": "string"
                },
                {
                  "internalType": "string",
                  "name": "documentHash",
                  "type": "string"
                },
                {
                  "internalType": "string",
                  "name": "fullNameHash",
                  "type": "string"
                },
                {
                  "internalType": "string",
                  "name": "nationalityHash",
                  "type": "string"
                },
                {
                  "internalType": "uint256",
                  "name": "verificationTimestamp",
                  "type": "uint256"
                },
                {
                  "internalType": "address",
                  "name": "verifiedBy",
                  "type": "address"
                },
                {
                  "internalType": "bool",
                  "name": "isVerified",
                  "type": "bool"
                },
                {
                  "internalType": "uint256",
                  "name": "expiryTimestamp",
                  "type": "uint256"
                },
                {
                  "internalType": "uint256",
                  "name": "trustScore",
                  "type": "uint256"
                },
                {
                  "internalType": "string",
                  "name": "biometricHash",
                  "type": "string"
                }
              ],
              "internalType": "struct TouristIdentity.KYCData",
              "name": "kycData",
              "type": "tuple"
            },
            {
              "components": [
                {
                  "internalType": "string",
                  "name": "itineraryHash",
                  "type": "string"
                },
                {
                  "internalType": "uint256",
                  "name": "startTimestamp",
                  "type": "uint256"
                },
                {
                  "internalType": "uint256",
                  "name": "endTimestamp",
                  "type": "uint256"
                },
                {
                  "internalType": "string",
                  "name": "purpose",
                  "type": "string"
                },
                {
                  "internalType": "uint8",
                  "name": "groupSize",
                  "type": "uint8"
                },
                {
                  "internalType": "string",
                  "name": "accommodationHash",
                  "type": "string"
                }
              ],
              "internalType": "struct TouristIdentity.TripData",
              "name": "tripData",
              "type": "tuple"
            },
            {
              "components": [
                {
                  "internalType": "string",
                  "name": "nameHash",
                  "type": "string"
                },
                {
                  "internalType": "string",
                  "name": "relationship",
                  "type": "string"
                },
                {
                  "internalType": "string",
                  "name": "phoneHash",
                  "type": "string"
                },
                {
                  "internalType": "string",
                  "name": "emailHash",
                  "type": "string"
                },
                {
                  "internalType": "bool",
                  "name": "isPrimary",
                  "type": "bool"
                }
              ],
              "internalType": "struct TouristIdentity.EmergencyContact[]",
              "name": "emergencyContacts",
              "type": "tuple[]"
            },
            {
              "internalType": "uint256",
              "name": "createdTimestamp",
              "type": "uint256"
            },
            {
              "internalType": "uint256",
              "name": "lastUpdatedTimestamp",
              "type": "uint256"
            },
            {
              "internalType": "bool",
              "name": "isActive",
              "type": "bool"
            },
            {
              "internalType": "bool",
              "name": "isRevoked",
              "type": "bool"
            }
          ],
          "internalType": "struct TouristIdentity.DigitalIdentity",
          "name": "",
          "type": "tuple"
        }
      ],
      "stateMutability": "view",
      "type": "function"
    },
    {
      "inputs": [
        {
          "internalType": "bytes32",
          "name": "role",
          "type": "bytes32"
        }
      ],
      "name": "getRoleAdmin",
      "outputs": [
        {
          "internalType": "bytes32",
          "name": "",
          "type": "bytes32"
        }
      ],
      "stateMutability": "view",
      "type": "function"
    },
    {
      "inputs": [],
      "name": "getTotalIdentities",
      "outputs": [
        {
          "internalType": "uint256",
          "name": "",
          "type": "uint256"
        }
      ],
      "stateMutability": "view",
      "type": "function"
    },
    {
      "inputs": [
        {
          "internalType": "address",
          "name": "_emergency",
          "type": "address"
        }
      ],
      "name": "grantEmergencyRole",
      "outputs": [],
      "stateMutability": "nonpayable",
      "type": "function"
    },
    {
      "inputs": [
        {
          "internalType": "bytes32",
          "name": "role",
          "type": "bytes32"
        },
        {
          "internalType": "address",
          "name": "account",
          "type": "address"
        }
      ],
      "name": "grantRole",
      "outputs": [],
      "stateMutability": "nonpayable",
      "type": "function"
    },
    {
      "inputs": [
        {
          "internalType": "address",
          "name": "_tourism",
          "type": "address"
        }
      ],
      "name": "grantTourismRole",
      "outputs": [],
      "stateMutability": "nonpayable",
      "type": "function"
    },
    {
      "inputs": [
        {
          "internalType": "address",
          "name": "_verifier",
          "type": "address"
        }
      ],
      "name": "grantVerifierRole",
      "outputs": [],
      "stateMutability": "nonpayable",
      "type": "function"
    },
    {
      "inputs": [
        {
          "internalType": "bytes32",
          "name": "role",
          "type": "bytes32"
        },
        {
          "internalType": "address",
          "name": "account",
          "type": "address"
        }
      ],
      "name": "hasRole",
      "outputs": [
        {
          "internalType": "bool",
          "name": "",
          "type": "bool"
        }
      ],
      "stateMutability": "view",
      "type": "function"
    },
    {
      "inputs": [
        {
          "internalType": "uint256",
          "name": "",
          "type": "uint256"
        }
      ],
      "name": "identities",
      "outputs": [
        {
          "internalType": "uint256",
          "name": "identityId",
          "type": "uint256"
        },
        {
          "internalType": "address",
          "name": "touristWallet",
          "type": "address"
        },
        {
          "internalType": "string",
          "name": "touristIdHash",
          "type": "string"
        },
        {
          "components": [
            {
              "internalType": "string",
              "name": "documentType",
              "type": "string"
            },
            {
              "internalType": "string",
              "name": "documentHash",
              "type": "string"
            },
            {
              "internalType": "string",
              "name": "fullNameHash",
              "type": "string"
            },
            {
              "internalType": "string",
              "name": "nationalityHash",
              "type": "string"
            },
            {
              "internalType": "uint256",
              "name": "verificationTimestamp",
              "type": "uint256"
            },
            {
              "internalType": "address",
              "name": "verifiedBy",
              "type": "address"
            },
            {
              "internalType": "bool",
              "name": "isVerified",
              "type": "bool"
            },
            {
              "internalType": "uint256",
              "name": "expiryTimestamp",
              "type": "uint256"
            },
            {
              "internalType": "uint256",
              "name": "trustScore",
              "type": "uint256"
            },
            {
              "internalType": "string",
              "name": "biometricHash",
              "type": "string"
            }
          ],
          "internalType": "struct TouristIdentity.KYCData",
          "name": "kycData",
          "type": "tuple"
        },
        {
          "components": [
            {
              "internalType": "string",
              "name": "itineraryHash",
              "type": "string"
            },
            {
              "internalType": "uint256",
              "name": "startTimestamp",
              "type": "uint256"
            },
            {
              "internalType": "uint256",
              "name": "endTimestamp",
              "type": "uint256"
            },
            {
              "internalType": "string",
              "name": "purpose",
              "type": "string"
            },
            {
              "internalType": "uint8",
              "name": "groupSize",
              "type": "uint8"
            },
            {
              "internalType": "string",
              "name": "accommodationHash",
              "type": "string"
            }
          ],
          "internalType": "struct TouristIdentity.TripData",
          "name": "tripData",
          "type": "tuple"
        },
        {
          "internalType": "uint256",
          "name": "createdTimestamp",
          "type": "uint256"
        },
        {
          "internalType": "uint256",
          "name": "lastUpdatedTimestamp",
          "type": "uint256"
        },
        {
          "internalType": "bool",
          "name": "isActive",
          "type": "bool"
        },
        {
          "internalType": "bool",
          "name": "isRevoked",
          "type": "bool"
        }
      ],
      "stateMutability": "view",
      "type": "function"
    },
    {
      "inputs": [
        {
          "internalType": "uint256",
          "name": "_identityId",
          "type": "uint256"
        }
      ],
      "name": "isIdentityVerified",
      "outputs": [
        {
          "internalType": "bool",
          "name": "",
          "type": "bool"
        }
      ],
      "stateMutability": "view",
      "type": "function"
    },
    {
      "inputs": [],
      "name": "pause",
      "outputs": [],
      "stateMutability": "nonpayable",
      "type": "function"
    },
    {
      "inputs": [],
      "name": "paused",
      "outputs": [
        {
          "internalType": "bool",
          "name": "",
          "type": "bool"
        }
      ],
      "stateMutability": "view",
      "type": "function"
    },
    {
      "inputs": [
        {
          "internalType": "bytes32",
          "name": "role",
          "type": "bytes32"
        },
        {
          "internalType": "address",
          "name": "callerConfirmation",
          "type": "address"
        }
      ],
      "name": "renounceRole",
      "outputs": [],
      "stateMutability": "nonpayable",
      "type": "function"
    },
    {
      "inputs": [
        {
          "internalType": "uint256",
          "name": "_identityId",
          "type": "uint256"
        },
        {
          "internalType": "string",
          "name": "_reason",
          "type": "string"
        }
      ],
      "name": "revokeIdentity",
      "outputs": [],
      "stateMutability": "nonpayable",
      "type": "function"
    },
    {
      "inputs": [
        {
          "internalType": "bytes32",
          "name": "role",
          "type": "bytes32"
        },
        {
          "internalType": "address",
          "name": "account",
          "type": "address"
        }
      ],
      "name": "revokeRole",
      "outputs": [],
      "stateMutability": "nonpayable",
      "type": "function"
    },
    {
      "inputs": [
        {
          "internalType": "uint256",
          "name": "_identityId",
          "type": "uint256"
        }
      ],
      "name": "startTrip",
      "outputs": [],
      "stateMutability": "nonpayable",
      "type": "function"
    },
    {
      "inputs": [
        {
          "internalType": "bytes4",
          "name": "interfaceId",
          "type": "bytes4"
        }
      ],
      "name": "supportsInterface",
      "outputs": [
        {
          "internalType": "bool",
          "name": "",
          "type": "bool"
        }
      ],
      "stateMutability": "view",
      "type": "function"
    },
    {
      "inputs": [
        {
          "internalType": "string",
          "name": "",
          "type": "string"
        }
      ],
      "name": "touristIdToIdentity",
      "outputs": [
        {
          "internalType": "uint256",
          "name": "",
          "type": "uint256"
        }
      ],
      "stateMutability": "view",
      "type": "function"
    },
    {
      "inputs": [],
      "name": "unpause",
      "outputs": [],
      "stateMutability": "nonpayable",
      "type": "function"
    },
    {
      "inputs": [
        {
          "internalType": "uint256",
          "name": "_identityId",
          "type": "uint256"
        },
        {
          "components": [
            {
              "internalType": "string",
              "name": "itineraryHash",
              "type": "string"
            },
            {
              "internalType": "uint256",
              "name": "startTimestamp",
              "type": "uint256"
            },
            {
              "internalType": "uint256",
              "name": "endTimestamp",
              "type": "uint256"
            },
            {
              "internalType": "string",
              "name": "purpose",
              "type": "string"
            },
            {
              "internalType": "uint8",
              "name": "groupSize",
              "type": "uint8"
            },
            {
              "internalType": "string",
              "name": "accommodationHash",
              "type": "string"
            }
          ],
          "internalType": "struct TouristIdentity.TripData",
          "name": "_tripData",
          "type": "tuple"
        }
      ],
      "name": "updateTripData",
      "outputs": [],
      "stateMutability": "nonpayable",
      "type": "function"
    },
    {
      "inputs": [
        {
          "internalType": "uint256",
          "name": "_identityId",
          "type": "uint256"
        }
      ],
      "name": "verifyIdentity",
      "outputs": [],
      "stateMutability": "nonpayable",
      "type": "function"
    },
    {
      "inputs": [
        {
          "internalType": "address",
          "name": "",
          "type": "address"
        }
      ],
      "name": "walletToIdentity",
      "outputs": [
        {
          "internalType": "uint256",
          "name": "",
          "type": "uint256"
        }
      ],
      "stateMutability": "view",
      "type": "function"
    }
  ],
  "bytecode": "0x60806040523480156200001157600080fd5b506001805562000023600033620000b1565b50620000507f0ce23c3e399818cfee81a7ab0880f714e53d7672b08df0fa62f2843416e1ea0933620000b1565b506200007d7fbf233dd2aafeb4d50879c4aa5c81e96d92f6e6945c906a58f9f2d1c1631b4b2633620000b1565b50620000aa7f5b19ce4b5c8feac4ff09a5f1e6dda0c6943aa99b427c1080c3f3eb35a704442a33620000b1565b5062000160565b6000828152602081815260408083206001600160a01b038516845290915281205460ff1662000156576000838152602081815260408083206001600160a01b03861684529091529020805460ff191660011790556200010d3390565b6001600160a01b0316826001600160a01b0316847f2f8788117e7eff1d82e926ec794901d17c78024a50270940304540a733656f0d60405160405180910390a45060016200015a565b5060005b92915050565b61430d80620001706000396000f3fe608060405234801561001057600080fd5b50600436106101fb5760003560e01c80636c3eb44b1161011a578063b1d208b5116100ad578063d9e1063d1161007c578063d9e1063d14610471578063e7705db614610498578063eaaf77e6146104ad578063f0f1011e146104d5578063fc2637f5146104e857600080fd5b8063b1d208b514610425578063babb55c514610438578063cd7b30391461044b578063d547741f1461045e57600080fd5b806391d14854116100e957806391d14854146103d0578063987766b7146103e35780639cbed582146103f6578063a217fddf1461041d57600080fd5b80636c3eb44b1461038f5780637314eb0c146103a25780638456cb59146103b557806385e3f058146103bd57600080fd5b80633c2bc6a111610192578063579e01aa11610161578063579e01aa14610333578063588a92971461035e5780635c975abb1461037157806360d17c081461037c57600080fd5b80633c2bc6a1146102f05780633dde315e146103105780633f4ba83a1461032357806347b834481461032b57600080fd5b8063248a9ca3116101ce578063248a9ca3146102805780632f2ff15d146102a35780632f6b1676146102b657806336568abe146102dd57600080fd5b806301ffc9a7146102005780630337c0611461022857806320df43591461023d578063231a615914610260575b600080fd5b61021361020e3660046131cb565b6104fb565b60405190151581526020015b60405180910390f35b61023b61023636600461321a565b610532565b005b61025260008051602061429883398151915281565b60405190815260200161021f565b61025261026e36600461321a565b60056020526000908152604090205481565b61025261028e366004613237565b60009081526020819052604090206001015490565b61023b6102b1366004613250565b61055a565b6102527f5b19ce4b5c8feac4ff09a5f1e6dda0c6943aa99b427c1080c3f3eb35a704442a81565b61023b6102eb366004613250565b610585565b6103036102fe3660046133b0565b6105b8565b60405161021f919061364e565b61023b61031e366004613237565b610f9c565b61023b611185565b600354610252565b61025261034136600461372e565b805160208183018101805160068252928201919093012091525481565b61021361036c366004613237565b61119b565b60025460ff16610213565b61023b61038a366004613237565b6111ef565b61025261039d366004613855565b61138a565b61023b6103b036600461321a565b61178d565b61023b6117b0565b6103036103cb366004613237565b6117c3565b6102136103de366004613250565b6121c0565b6103036103f136600461321a565b6121e9565b6102527fd9d062b29c8756d894f301c5167d214c34d627724cd7fc859ab9329c9330cf5181565b610252600081565b61023b6104333660046133b0565b6122db565b61023b610446366004613237565b612438565b61023b6104593660046139f4565b612575565b61023b61046c366004613250565b6126a7565b6102527f6c4079fcac94e7142d8c209744c998efe53a188aadb7e55958f7ad3ea8a1d65281565b6102526000805160206142b883398151915281565b6104c06104bb366004613237565b6126cc565b60405161021f99989796959493929190613a30565b61023b6104e3366004613aaf565b612cbd565b61023b6104f636600461321a565b612e81565b60006001600160e01b03198216637965db0b60e01b148061052c57506301ffc9a760e01b6001600160e01b03198316145b92915050565b600061053d81612eb6565b6105556000805160206142b883398151915283612ec0565b505050565b60008281526020819052604090206001015461057581612eb6565b61057f8383612ec0565b50505050565b6001600160a01b03811633146105ae5760405163334bd91960e11b815260040160405180910390fd5b6105558282612f52565b6105c06130d2565b6000805160206142988339815191526105d881612eb6565b60008481526004602052604081205485910361060f5760405162461bcd60e51b815260040161060690613ba4565b60405180910390fd5b60008451116106705760405162461bcd60e51b815260206004820152602760248201527f546f75726973744964656e746974793a2041636365737320726561736f6e2072604482015266195c5d5a5c995960ca1b6064820152608401610606565b336001600160a01b0316857f49d0f143c8a72c7394deae1d5d4b00313077a7b1fa5a1eb0c5a66fca1e8ab9df86426040516106ac929190613bec565b60405180910390a36000858152600460209081526040918290208251610140810184528154815260018201546001600160a01b03169281019290925260028101805492939192918401916106ff90613c0e565b80601f016020809104026020016040519081016040528092919081815260200182805461072b90613c0e565b80156107785780601f1061074d57610100808354040283529160200191610778565b820191906000526020600020905b81548152906001019060200180831161075b57829003601f168201915b5050505050815260200160038201604051806101400160405290816000820180546107a290613c0e565b80601f01602080910402602001604051908101604052809291908181526020018280546107ce90613c0e565b801561081b5780601f106107f05761010080835404028352916020019161081b565b820191906000526020600020905b8154815290600101906020018083116107fe57829003601f168201915b5050505050815260200160018201805461083490613c0e565b80601f016020809104026020016040519081016040528092919081815260200182805461086090613c0e565b80156108ad5780601f10610882576101008083540402835291602001916108ad565b820191906000526020600020905b81548152906001019060200180831161089057829003601f168201915b505050505081526020016002820180546108c690613c0e565b80601f01602080910402602001604051908101604052809291908181526020018280546108f290613c0e565b801561093f5780601f106109145761010080835404028352916020019161093f565b820191906000526020600020905b81548152906001019060200180831161092257829003601f168201915b5050505050815260200160038201805461095890613c0e565b80601f016020809104026020016040519081016040528092919081815260200182805461098490613c0e565b80156109d15780601f106109a6576101008083540402835291602001916109d1565b820191906000526020600020905b8154815290600101906020018083116109b457829003601f168201915b50505091835250506004820154602082015260058201546001600160a01b0381166040830152600160a01b900460ff161515606082015260068201546080820152600782015460a082015260088201805460c090920191610a3190613c0e565b80601f0160208091040260200160405190810160405280929190818152602001828054610a5d90613c0e565b8015610aaa5780601f10610a7f57610100808354040283529160200191610aaa565b820191906000526020600020905b815481529060010190602001808311610a8d57829003601f168201915b5050505050815250508152602001600c82016040518060c0016040529081600082018054610ad790613c0e565b80601f0160208091040260200160405190810160405280929190818152602001828054610b0390613c0e565b8015610b505780601f10610b2557610100808354040283529160200191610b50565b820191906000526020600020905b815481529060010190602001808311610b3357829003601f168201915b505050505081526020016001820154815260200160028201548152602001600382018054610b7d90613c0e565b80601f0160208091040260200160405190810160405280929190818152602001828054610ba990613c0e565b8015610bf65780601f10610bcb57610100808354040283529160200191610bf6565b820191906000526020600020905b815481529060010190602001808311610bd957829003601f168201915b5050509183525050600482015460ff166020820152600582018054604090920191610c2090613c0e565b80601f0160208091040260200160405190810160405280929190818152602001828054610c4c90613c0e565b8015610c995780601f10610c6e57610100808354040283529160200191610c99565b820191906000526020600020905b815481529060010190602001808311610c7c57829003601f168201915b505050505081525050815260200160128201805480602002602001604051908101604052809291908181526020016000905b82821015610f5757838290600052602060002090600502016040518060a0016040529081600082018054610cfe90613c0e565b80601f0160208091040260200160405190810160405280929190818152602001828054610d2a90613c0e565b8015610d775780601f10610d4c57610100808354040283529160200191610d77565b820191906000526020600020905b815481529060010190602001808311610d5a57829003601f168201915b50505050508152602001600182018054610d9090613c0e565b80601f0160208091040260200160405190810160405280929190818152602001828054610dbc90613c0e565b8015610e095780601f10610dde57610100808354040283529160200191610e09565b820191906000526020600020905b815481529060010190602001808311610dec57829003601f168201915b50505050508152602001600282018054610e2290613c0e565b80601f0160208091040260200160405190810160405280929190818152602001828054610e4e90613c0e565b8015610e9b5780601f10610e7057610100808354040283529160200191610e9b565b820191906000526020600020905b815481529060010190602001808311610e7e57829003601f168201915b50505050508152602001600382018054610eb490613c0e565b80601f0160208091040260200160405190810160405280929190818152602001828054610ee090613c0e565b8015610f2d5780601f10610f0257610100808354040283529160200191610f2d565b820191906000526020600020905b815481529060010190602001808311610f1057829003601f168201915b50505091835250506004919091015460ff1615156020918201529082526001929092019101610ccb565b50505090825250601382015460208201526014820154604082015260159091015460ff8082161515606084015261010090910416151560809091015295945050505050565b600081815260046020526040812054829103610fca5760405162461bcd60e51b815260040161060690613ba4565b600082815260046020526040902060150154829060ff1680156110045750600081815260046020526040902060150154610100900460ff16155b61105c5760405162461bcd60e51b8152602060048201526024808201527f546f75726973744964656e746974793a204964656e74697479206e6f742061636044820152637469766560e01b6064820152608401610606565b60008381526004602052604090206001015483906001600160a01b031633146110975760405162461bcd60e51b815260040161060690613c42565b600084815260046020526040902060080154600160a01b900460ff166111255760405162461bcd60e51b815260206004820152603860248201527f546f75726973744964656e746974793a204964656e74697479206d757374206260448201527f6520766572696669656420746f207374617274207472697000000000000000006064820152608401610606565b6000848152600460205260409081902042600d82018190556014909101819055905185917f57f71bf285e37a5ff433e606dc81b7b14fa11c36078df400f8d352721c59249e9161117791815260200190565b60405180910390a250505050565b600061119081612eb6565b611198612fbd565b50565b600081815260046020526040812054829082036111ca5760405162461bcd60e51b815260040161060690613ba4565b600083815260046020526040902060080154600160a01b900460ff1691505b50919050565b60008181526004602052604081205482910361121d5760405162461bcd60e51b815260040161060690613ba4565b60008281526004602052604090206001015482906001600160a01b031633146112585760405162461bcd60e51b815260040161060690613c42565b6000838152600460205260409020600d01546112c05760405162461bcd60e51b815260206004820152602160248201527f546f75726973744964656e746974793a2054726970206e6f74207374617274656044820152601960fa1b6064820152608401610606565b6000838152600460205260409020600e01541561132b5760405162461bcd60e51b815260206004820152602360248201527f546f75726973744964656e746974793a205472697020616c726561647920656e60448201526219195960ea1b6064820152608401610606565b6000838152600460205260409081902042600e82018190556014909101819055905184917f8e5d9390e14927c64c3d5ac803b20f001b9dfae0291030d2a1c19a93c527f1c09161137d91815260200190565b60405180910390a2505050565b600061139461300f565b6001600160a01b0385166113fa5760405162461bcd60e51b815260206004820152602760248201527f546f75726973744964656e746974793a20496e76616c69642077616c6c6574206044820152666164647265737360c81b6064820152608401610606565b600084511161145c5760405162461bcd60e51b815260206004820152602860248201527f546f75726973744964656e746974793a20496e76616c696420746f7572697374604482015267040928840d0c2e6d60c31b6064820152608401610606565b6001600160a01b038516600090815260056020526040902054156114d75760405162461bcd60e51b815260206004820152602c60248201527f546f75726973744964656e746974793a2057616c6c657420616c72656164792060448201526b686173206964656e7469747960a01b6064820152608401610606565b6006846040516114e79190613c85565b9081526020016040518091039020546000146115585760405162461bcd60e51b815260206004820152602a60248201527f546f75726973744964656e746974793a20546f757269737420494420616c72656044820152696164792065786973747360b01b6064820152608401610606565b6003805490600061156883613ca1565b909155505060035460008181526004602052604090208181556001810180546001600160a01b0319166001600160a01b038916179055600281016115ac8782613d16565b5084518590600383019081906115c29082613d16565b50602082015160018201906115d79082613d16565b50604082015160028201906115ec9082613d16565b50606082015160038201906116019082613d16565b506080820151600482015560a082015160058201805460c08501511515600160a01b026001600160a81b03199091166001600160a01b039093169290921791909117905560e082015160068201556101008201516007820155610120820151600882019061166f9082613d16565b50508451859150600c83019081906116879082613d16565b506020820151600182015560408201516002820155606082015160038201906116b09082613d16565b50608082015160048201805460ff191660ff90921691909117905560a082015160058201906116df9082613d16565b5050426013830181905560148301555060158101805461ffff191660011790556001600160a01b0387166000908152600560205260409081902083905551829060069061172d908990613c85565b908152602001604051809103902081905550866001600160a01b0316827fc70d09c7b0d38b8efc7e79c0bc2a887c759916622c2d0192664bd65a02b68d47884260405161177b929190613bec565b60405180910390a35095945050505050565b600061179881612eb6565b61055560008051602061429883398151915283612ec0565b60006117bb81612eb6565b611198613035565b6117cb6130d2565b6000828152600460205260408120548391036117f95760405162461bcd60e51b815260040161060690613ba4565b6000838152600460205260409020600101546001600160a01b031633148061184657506118467f5b19ce4b5c8feac4ff09a5f1e6dda0c6943aa99b427c1080c3f3eb35a704442a336121c0565b806118645750611864600080516020614298833981519152336121c0565b8061188257506118826000805160206142b8833981519152336121c0565b6118da5760405162461bcd60e51b8152602060048201526024808201527f546f75726973744964656e746974793a20556e617574686f72697a65642061636044820152636365737360e01b6064820152608401610606565b6000838152600460209081526040918290208251610140810184528154815260018201546001600160a01b031692810192909252600281018054929391929184019161192590613c0e565b80601f016020809104026020016040519081016040528092919081815260200182805461195190613c0e565b801561199e5780601f106119735761010080835404028352916020019161199e565b820191906000526020600020905b81548152906001019060200180831161198157829003601f168201915b5050505050815260200160038201604051806101400160405290816000820180546119c890613c0e565b80601f01602080910402602001604051908101604052809291908181526020018280546119f490613c0e565b8015611a415780601f10611a1657610100808354040283529160200191611a41565b820191906000526020600020905b815481529060010190602001808311611a2457829003601f168201915b50505050508152602001600182018054611a5a90613c0e565b80601f0160208091040260200160405190810160405280929190818152602001828054611a8690613c0e565b8015611ad35780601f10611aa857610100808354040283529160200191611ad3565b820191906000526020600020905b815481529060010190602001808311611ab657829003601f168201915b50505050508152602001600282018054611aec90613c0e565b80601f0160208091040260200160405190810160405280929190818152602001828054611b1890613c0e565b8015611b655780601f10611b3a57610100808354040283529160200191611b65565b820191906000526020600020905b815481529060010190602001808311611b4857829003601f168201915b50505050508152602001600382018054611b7e90613c0e565b80601f0160208091040260200160405190810160405280929190818152602001828054611baa90613c0e565b8015611bf75780601f10611bcc57610100808354040283529160200191611bf7565b820191906000526020600020905b815481529060010190602001808311611bda57829003601f168201915b50505091835250506004820154602082015260058201546001600160a01b0381166040830152600160a01b900460ff161515606082015260068201546080820152600782015460a082015260088201805460c090920191611c5790613c0e565b80601f0160208091040260200160405190810160405280929190818152602001828054611c8390613c0e565b8015611cd05780601f10611ca557610100808354040283529160200191611cd0565b820191906000526020600020905b815481529060010190602001808311611cb357829003601f168201915b5050505050815250508152602001600c82016040518060c0016040529081600082018054611cfd90613c0e565b80601f0160208091040260200160405190810160405280929190818152602001828054611d2990613c0e565b8015611d765780601f10611d4b57610100808354040283529160200191611d76565b820191906000526020600020905b815481529060010190602001808311611d5957829003601f168201915b505050505081526020016001820154815260200160028201548152602001600382018054611da390613c0e565b80601f0160208091040260200160405190810160405280929190818152602001828054611dcf90613c0e565b8015611e1c5780601f10611df157610100808354040283529160200191611e1c565b820191906000526020600020905b815481529060010190602001808311611dff57829003601f168201915b5050509183525050600482015460ff166020820152600582018054604090920191611e4690613c0e565b80601f0160208091040260200160405190810160405280929190818152602001828054611e7290613c0e565b8015611ebf5780601f10611e9457610100808354040283529160200191611ebf565b820191906000526020600020905b815481529060010190602001808311611ea257829003601f168201915b505050505081525050815260200160128201805480602002602001604051908101604052809291908181526020016000905b8282101561217d57838290600052602060002090600502016040518060a0016040529081600082018054611f2490613c0e565b80601f0160208091040260200160405190810160405280929190818152602001828054611f5090613c0e565b8015611f9d5780601f10611f7257610100808354040283529160200191611f9d565b820191906000526020600020905b815481529060010190602001808311611f8057829003601f168201915b50505050508152602001600182018054611fb690613c0e565b80601f0160208091040260200160405190810160405280929190818152602001828054611fe290613c0e565b801561202f5780601f106120045761010080835404028352916020019161202f565b820191906000526020600020905b81548152906001019060200180831161201257829003601f168201915b5050505050815260200160028201805461204890613c0e565b80601f016020809104026020016040519081016040528092919081815260200182805461207490613c0e565b80156120c15780601f10612096576101008083540402835291602001916120c1565b820191906000526020600020905b8154815290600101906020018083116120a457829003601f168201915b505050505081526020016003820180546120da90613c0e565b80601f016020809104026020016040519081016040528092919081815260200182805461210690613c0e565b80156121535780601f1061212857610100808354040283529160200191612153565b820191906000526020600020905b81548152906001019060200180831161213657829003601f168201915b50505091835250506004919091015460ff1615156020918201529082526001929092019101611ef1565b50505090825250601382015460208201526014820154604082015260159091015460ff808216151560608401526101009091041615156080909101529392505050565b6000918252602082815260408084206001600160a01b0393909316845291905290205460ff1690565b6121f16130d2565b6001600160a01b038216600090815260056020526040812054908190036122705760405162461bcd60e51b815260206004820152602d60248201527f546f75726973744964656e746974793a204e6f206964656e7469747920666f7560448201526c1b9908199bdc881dd85b1b195d609a1b6064820152608401610606565b6040516310bc7e0b60e31b81526004810182905230906385e3f05890602401600060405180830381865afa1580156122ac573d6000803e3d6000fd5b505050506040513d6000823e601f3d908101601f191682016040526122d49190810190614165565b9392505050565b60006122e681612eb6565b6000838152600460205260408120548491036123145760405162461bcd60e51b815260040161060690613ba4565b600084815260046020526040902060150154610100900460ff161561237b5760405162461bcd60e51b815260206004820181905260248201527f546f75726973744964656e746974793a20416c7265616479207265766f6b65646044820152606401610606565b60008351116123cc5760405162461bcd60e51b815260206004820181905260248201527f546f75726973744964656e746974793a20526561736f6e2072657175697265646044820152606401610606565b6000848152600460205260409081902060158101805461ffff19166101001790554260149091018190559051339186917f34181cfec96282d6f9909637f18ef0bbf7cfd53e89cc27e3c65c432ff7c816ea9161242a91889190613bec565b60405180910390a350505050565b6000805160206142b883398151915261245081612eb6565b60008281526004602052604081205483910361247e5760405162461bcd60e51b815260040161060690613ba4565b61248661300f565b600083815260046020526040902060080154600160a01b900460ff16156124f95760405162461bcd60e51b815260206004820152602160248201527f546f75726973744964656e746974793a20416c726561647920766572696669656044820152601960fa1b6064820152608401610606565b600083815260046020526040908190206008810180546001600160a81b03191633908117600160a01b1790915542600783018190556014909201829055915185917f0c8fb91c035460e77a706805907d40a549c7be443bace051edf7ed20b62936a19161256891815260200190565b60405180910390a3505050565b6000828152600460205260408120548391036125a35760405162461bcd60e51b815260040161060690613ba4565b60008381526004602052604090206001015483906001600160a01b031633146125de5760405162461bcd60e51b815260040161060690613c42565b600084815260046020526040902083518491600c019081906126009082613d16565b506020820151600182015560408201516002820155606082015160038201906126299082613d16565b50608082015160048201805460ff191660ff90921691909117905560a082015160058201906126589082613d16565b5050506000848152600460209081526040918290204260149091018190559151918252339186917f082b1f19e73a799ad64df693a2db8b2a6b3caecb28593667689483edea4482ec910161242a565b6000828152602081905260409020600101546126c281612eb6565b61057f8383612f52565b60046020526000908152604090208054600182015460028301805492936001600160a01b03909216926126fe90613c0e565b80601f016020809104026020016040519081016040528092919081815260200182805461272a90613c0e565b80156127775780601f1061274c57610100808354040283529160200191612777565b820191906000526020600020905b81548152906001019060200180831161275a57829003601f168201915b505050505090806003016040518061014001604052908160008201805461279d90613c0e565b80601f01602080910402602001604051908101604052809291908181526020018280546127c990613c0e565b80156128165780601f106127eb57610100808354040283529160200191612816565b820191906000526020600020905b8154815290600101906020018083116127f957829003601f168201915b5050505050815260200160018201805461282f90613c0e565b80601f016020809104026020016040519081016040528092919081815260200182805461285b90613c0e565b80156128a85780601f1061287d576101008083540402835291602001916128a8565b820191906000526020600020905b81548152906001019060200180831161288b57829003601f168201915b505050505081526020016002820180546128c190613c0e565b80601f01602080910402602001604051908101604052809291908181526020018280546128ed90613c0e565b801561293a5780601f1061290f5761010080835404028352916020019161293a565b820191906000526020600020905b81548152906001019060200180831161291d57829003601f168201915b5050505050815260200160038201805461295390613c0e565b80601f016020809104026020016040519081016040528092919081815260200182805461297f90613c0e565b80156129cc5780601f106129a1576101008083540402835291602001916129cc565b820191906000526020600020905b8154815290600101906020018083116129af57829003601f168201915b50505091835250506004820154602082015260058201546001600160a01b0381166040830152600160a01b900460ff161515606082015260068201546080820152600782015460a082015260088201805460c090920191612a2c90613c0e565b80601f0160208091040260200160405190810160405280929190818152602001828054612a5890613c0e565b8015612aa55780601f10612a7a57610100808354040283529160200191612aa5565b820191906000526020600020905b815481529060010190602001808311612a8857829003601f168201915b5050505050815250509080600c016040518060c0016040529081600082018054612ace90613c0e565b80601f0160208091040260200160405190810160405280929190818152602001828054612afa90613c0e565b8015612b475780601f10612b1c57610100808354040283529160200191612b47565b820191906000526020600020905b815481529060010190602001808311612b2a57829003601f168201915b505050505081526020016001820154815260200160028201548152602001600382018054612b7490613c0e565b80601f0160208091040260200160405190810160405280929190818152602001828054612ba090613c0e565b8015612bed5780601f10612bc257610100808354040283529160200191612bed565b820191906000526020600020905b815481529060010190602001808311612bd057829003601f168201915b5050509183525050600482015460ff166020820152600582018054604090920191612c1790613c0e565b80601f0160208091040260200160405190810160405280929190818152602001828054612c4390613c0e565b8015612c905780601f10612c6557610100808354040283529160200191612c90565b820191906000526020600020905b815481529060010190602001808311612c7357829003601f168201915b50505091909252505050601382015460148301546015909301549192909160ff8082169161010090041689565b600082815260046020526040812054839103612ceb5760405162461bcd60e51b815260040161060690613ba4565b60008381526004602052604090206001015483906001600160a01b03163314612d265760405162461bcd60e51b815260040161060690613c42565b600084815260046020526040902060120154600511612da55760405162461bcd60e51b815260206004820152603560248201527f546f75726973744964656e746974793a204d6178696d756d203520656d657267604482015274195b98de4818dbdb9d1858dd1cc8185b1b1bddd959605a1b6064820152608401610606565b600084815260046020908152604082206012018054600181018255908352912084518592600502909101908190612ddc9082613d16565b5060208201516001820190612df19082613d16565b5060408201516002820190612e069082613d16565b5060608201516003820190612e1b9082613d16565b50608091909101516004918201805460ff1916911515919091179055600085815260209182526040908190204260149091018190559051908152339186917f082b1f19e73a799ad64df693a2db8b2a6b3caecb28593667689483edea4482ec910161242a565b6000612e8c81612eb6565b6105557f5b19ce4b5c8feac4ff09a5f1e6dda0c6943aa99b427c1080c3f3eb35a704442a83612ec0565b6111988133613072565b6000612ecc83836121c0565b612f4a576000838152602081815260408083206001600160a01b03861684529091529020805460ff19166001179055612f023390565b6001600160a01b0316826001600160a01b0316847f2f8788117e7eff1d82e926ec794901d17c78024a50270940304540a733656f0d60405160405180910390a450600161052c565b50600061052c565b6000612f5e83836121c0565b15612f4a576000838152602081815260408083206001600160a01b0386168085529252808320805460ff1916905551339286917ff6391f5c32d9c69d2a47ea670b442974b53935d1edc7fd64eb21e047a839171b9190a450600161052c565b612fc56130af565b6002805460ff191690557f5db9ee0a495bf2e6ff9c91a7834c1ba4fdd244a5e8aa4e537bd38aeae4b073aa335b6040516001600160a01b03909116815260200160405180910390a1565b60025460ff16156130335760405163d93c066560e01b815260040160405180910390fd5b565b61303d61300f565b6002805460ff191660011790557f62e78cea01bee320cd4e420270b5ea74000d11b0c9f74754ebdbfc544b05a258612ff23390565b61307c82826121c0565b6130ab5760405163e2517d3f60e01b81526001600160a01b038216600482015260248101839052604401610606565b5050565b60025460ff1661303357604051638dfc202b60e01b815260040160405180910390fd5b6040518061014001604052806000815260200160006001600160a01b031681526020016060815260200161315d604051806101400160405280606081526020016060815260200160608152602001606081526020016000815260200160006001600160a01b031681526020016000151581526020016000815260200160008152602001606081525090565b815260200161319e6040518060c0016040528060608152602001600081526020016000815260200160608152602001600060ff168152602001606081525090565b81526020016060815260200160008152602001600081526020016000151581526020016000151581525090565b6000602082840312156131dd57600080fd5b81356001600160e01b0319811681146122d457600080fd5b6001600160a01b038116811461119857600080fd5b8035613215816131f5565b919050565b60006020828403121561322c57600080fd5b81356122d4816131f5565b60006020828403121561324957600080fd5b5035919050565b6000806040838503121561326357600080fd5b823591506020830135613275816131f5565b809150509250929050565b634e487b7160e01b600052604160045260246000fd5b60405160c081016001600160401b03811182821017156132b8576132b8613280565b60405290565b60405161014081016001600160401b03811182821017156132b8576132b8613280565b60405160a081016001600160401b03811182821017156132b8576132b8613280565b604051601f8201601f191681016001600160401b038111828210171561332b5761332b613280565b604052919050565b60006001600160401b0382111561334c5761334c613280565b50601f01601f191660200190565b600082601f83011261336b57600080fd5b813561337e61337982613333565b613303565b81815284602083860101111561339357600080fd5b816020850160208301376000918101602001919091529392505050565b600080604083850312156133c357600080fd5b8235915060208301356001600160401b038111156133e057600080fd5b6133ec8582860161335a565b9150509250929050565b60005b838110156134115781810151838201526020016133f9565b50506000910152565b600081518084526134328160208601602086016133f6565b601f01601f19169290920160200192915050565b6000610140825181855261345c8286018261341a565b91505060208301518482036020860152613476828261341a565b91505060408301518482036040860152613490828261341a565b915050606083015184820360608601526134aa828261341a565b9150506080830151608085015260a08301516134d160a08601826001600160a01b03169052565b5060c08301516134e560c086018215159052565b5060e083015160e08501526101008084015181860152506101208084015185830382870152613514838261341a565b9695505050505050565b6000815160c0845261353360c085018261341a565b9050602083015160208501526040830151604085015260608301518482036060860152613560828261341a565b91505060ff608084015116608085015260a083015184820360a0860152613587828261341a565b95945050505050565b600081518084526020808501808196508360051b8101915082860160005b85811015613641578284038952815160a081518187526135d08288018261341a565b91505086820151868203888801526135e8828261341a565b91505060408083015187830382890152613602838261341a565b925050506060808301518783038289015261361d838261341a565b608094850151151598909401979097525050988501989350908401906001016135ae565b5091979650505050505050565b60208152815160208201526000602083015161367560408401826001600160a01b03169052565b50604083015161014080606085015261369261016085018361341a565b91506060850151601f19808685030160808701526136b08483613446565b935060808701519150808685030160a08701526136cd848361351e565b935060a08701519150808685030160c0870152506136eb8382613590565b92505060c085015160e085015260e085015161010081818701528087015191505061012061371c8187018315159052565b90950151151593019290925250919050565b60006020828403121561374057600080fd5b81356001600160401b0381111561375657600080fd5b6137628482850161335a565b949350505050565b801515811461119857600080fd5b80356132158161376a565b60ff8116811461119857600080fd5b803561321581613783565b600060c082840312156137af57600080fd5b6137b7613296565b905081356001600160401b03808211156137d057600080fd5b6137dc8583860161335a565b83526020840135602084015260408401356040840152606084013591508082111561380657600080fd5b6138128583860161335a565b606084015261382360808501613792565b608084015260a084013591508082111561383c57600080fd5b506138498482850161335a565b60a08301525092915050565b6000806000806080858703121561386b57600080fd5b8435613876816131f5565b935060208501356001600160401b038082111561389257600080fd5b61389e8883890161335a565b945060408701359150808211156138b457600080fd5b9086019061014082890312156138c957600080fd5b6138d16132be565b8235828111156138e057600080fd5b6138ec8a82860161335a565b82525060208301358281111561390157600080fd5b61390d8a82860161335a565b60208301525060408301358281111561392557600080fd5b6139318a82860161335a565b60408301525060608301358281111561394957600080fd5b6139558a82860161335a565b6060830152506080830135608082015261397160a0840161320a565b60a082015261398260c08401613778565b60c082015260e083013560e082015261010080840135818301525061012080840135838111156139b157600080fd5b6139bd8b82870161335a565b8284015250508094505060608701359150808211156139db57600080fd5b506139e88782880161379d565b91505092959194509250565b60008060408385031215613a0757600080fd5b8235915060208301356001600160401b03811115613a2457600080fd5b6133ec8582860161379d565b8981526001600160a01b038916602082015261012060408201819052600090613a5b8382018b61341a565b90508281036060840152613a6f818a613446565b90508281036080840152613a83818961351e565b60a0840197909752505060c081019390935290151560e083015215156101009091015295945050505050565b60008060408385031215613ac257600080fd5b8235915060208301356001600160401b0380821115613ae057600080fd5b9084019060a08287031215613af457600080fd5b613afc6132e1565b823582811115613b0b57600080fd5b613b178882860161335a565b825250602083013582811115613b2c57600080fd5b613b388882860161335a565b602083015250604083013582811115613b5057600080fd5b613b5c8882860161335a565b604083015250606083013582811115613b7457600080fd5b613b808882860161335a565b606083015250613b9260808401613778565b60808201528093505050509250929050565b60208082526028908201527f546f75726973744964656e746974793a204964656e7469747920646f6573206e6040820152671bdd08195e1a5cdd60c21b606082015260800190565b604081526000613bff604083018561341a565b90508260208301529392505050565b600181811c90821680613c2257607f821691505b6020821081036111e957634e487b7160e01b600052602260045260246000fd5b60208082526023908201527f546f75726973744964656e746974793a204e6f74206964656e74697479206f776040820152623732b960e91b606082015260800190565b60008251613c978184602087016133f6565b9190910192915050565b600060018201613cc157634e487b7160e01b600052601160045260246000fd5b5060010190565b601f82111561055557600081815260208120601f850160051c81016020861015613cef5750805b601f850160051c820191505b81811015613d0e57828155600101613cfb565b505050505050565b81516001600160401b03811115613d2f57613d2f613280565b613d4381613d3d8454613c0e565b84613cc8565b602080601f831160018114613d785760008415613d605750858301515b600019600386901b1c1916600185901b178555613d0e565b600085815260208120601f198616915b82811015613da757888601518255948401946001909101908401613d88565b5085821015613dc55787850151600019600388901b60f8161c191681555b5050505050600190811b01905550565b8051613215816131f5565b600082601f830112613df157600080fd5b8151613dff61337982613333565b818152846020838601011115613e1457600080fd5b6137628260208301602087016133f6565b80516132158161376a565b60006101408284031215613e4357600080fd5b613e4b6132be565b905081516001600160401b0380821115613e6457600080fd5b613e7085838601613de0565b83526020840151915080821115613e8657600080fd5b613e9285838601613de0565b60208401526040840151915080821115613eab57600080fd5b613eb785838601613de0565b60408401526060840151915080821115613ed057600080fd5b613edc85838601613de0565b606084015260808401516080840152613ef760a08501613dd5565b60a0840152613f0860c08501613e25565b60c084015260e084015160e08401526101009150818401518284015261012091508184015181811115613f3a57600080fd5b613f4686828701613de0565b8385015250505092915050565b805161321581613783565b600060c08284031215613f7057600080fd5b613f78613296565b905081516001600160401b0380821115613f9157600080fd5b613f9d85838601613de0565b835260208401516020840152604084015160408401526060840151915080821115613fc757600080fd5b613fd385838601613de0565b6060840152613fe460808501613f53565b608084015260a0840151915080821115613ffd57600080fd5b5061384984828501613de0565b600082601f83011261401b57600080fd5b815160206001600160401b038083111561403757614037613280565b8260051b614046838201613303565b938452858101830193838101908886111561406057600080fd5b84880192505b858310156141595782518481111561407e5760008081fd5b880160a0818b03601f19018113156140965760008081fd5b61409e6132e1565b87830151878111156140b05760008081fd5b6140be8d8a83870101613de0565b825250604080840151888111156140d55760008081fd5b6140e38e8b83880101613de0565b8a84015250606080850151898111156140fc5760008081fd5b61410a8f8c83890101613de0565b83850152506080915081850151898111156141255760008081fd5b6141338f8c83890101613de0565b828501525050614144838501613e25565b90820152845250509184019190840190614066565b98975050505050505050565b60006020828403121561417757600080fd5b81516001600160401b038082111561418e57600080fd5b9083019061014082860312156141a357600080fd5b6141ab6132be565b825181526141bb60208401613dd5565b60208201526040830151828111156141d257600080fd5b6141de87828601613de0565b6040830152506060830151828111156141f657600080fd5b61420287828601613e30565b60608301525060808301518281111561421a57600080fd5b61422687828601613f5e565b60808301525060a08301518281111561423e57600080fd5b61424a8782860161400a565b60a08301525060c083015160c082015260e083015160e08201526101009150614274828401613e25565b828201526101209150614288828401613e25565b9181019190915294935050505056febf233dd2aafeb4d50879c4aa5c81e96d92f6e6945c906a58f9f2d1c1631b4b260ce23c3e399818cfee81a7ab0880f714e53d7672b08df0fa62f2843416e1ea09a2646970667358221220e4ced5c9e76c157d4b2d3dde4c209e406ce068e217a2e80fcbef1133cfb01d9f64736f6c63430008140033",
  "linkReferences": {},
  "deployedLinkReferences": {}
}