{
  "_format": "hh-sol-artifact-1",
  "contractName": "EmergencyLogging",
  "sourceName": "contracts/EmergencyLogging.sol",
  "abi": [
    {
      "inputs": [],
      "stateMutability": "nonpayable",
      "type": "constructor"
    },
    {
      "inputs": [],
      "name": "AccessControlBadConfirmation",
      "type": "error"
    },
    {
      "inputs": [
        {
          "internalType": "address",
          "name": "account",
          "type": "address"
        },
        {
          "internalType": "bytes32",
          "name": "neededRole",
          "type": "bytes32"
        }
      ],
      "name": "AccessControlUnauthorizedAccount",
      "type": "error"
    },
    {
      "inputs": [],
      "name": "EnforcedPause",
      "type": "error"
    },
    {
      "inputs": [],
      "name": "ExpectedPause",
      "type": "error"
    },
    {
      "inputs": [],
      "name": "ReentrancyGuardReentrantCall",
      "type": "error"
    },
    {
      "anonymous": false,
      "inputs": [
        {
          "indexed": true,
          "internalType": "uint256",
          "name": "recordId",
          "type": "uint256"
        },
        {
          "indexed": true,
          "internalType": "address",
          "name": "touristWallet",
          "type": "address"
        },
        {
          "indexed": false,
          "internalType": "string",
          "name": "touristIdHash",
          "type": "string"
        },
        {
          "indexed": false,
          "internalType": "string",
          "name": "incidentType",
          "type": "string"
        },
        {
          "indexed": false,
          "internalType": "string",
          "name": "location",
          "type": "string"
        },
        {
          "indexed": false,
          "internalType": "uint256",
          "name": "timestamp",
          "type": "uint256"
        },
        {
          "indexed": false,
          "internalType": "address",
          "name": "reportedBy",
          "type": "address"
        }
      ],
      "name": "EmergencyReported",
      "type": "event"
    },
    {
      "anonymous": false,
      "inputs": [
        {
          "indexed": true,
          "internalType": "uint256",
          "name": "recordId",
          "type": "uint256"
        },
        {
          "indexed": true,
          "internalType": "address",
          "name": "resolvedBy",
          "type": "address"
        },
        {
          "indexed": false,
          "internalType": "uint256",
          "name": "resolvedTimestamp",
          "type": "uint256"
        }
      ],
      "name": "EmergencyResolved",
      "type": "event"
    },
    {
      "anonymous": false,
      "inputs": [
        {
          "indexed": false,
          "internalType": "address",
          "name": "account",
          "type": "address"
        }
      ],
      "name": "Paused",
      "type": "event"
    },
    {
      "anonymous": false,
      "inputs": [
        {
          "indexed": true,
          "internalType": "bytes32",
          "name": "role",
          "type": "bytes32"
        },
        {
          "indexed": true,
          "internalType": "bytes32",
          "name": "previousAdminRole",
          "type": "bytes32"
        },
        {
          "indexed": true,
          "internalType": "bytes32",
          "name": "newAdminRole",
          "type": "bytes32"
        }
      ],
      "name": "RoleAdminChanged",
      "type": "event"
    },
    {
      "anonymous": false,
      "inputs": [
        {
          "indexed": true,
          "internalType": "bytes32",
          "name": "role",
          "type": "bytes32"
        },
        {
          "indexed": true,
          "internalType": "address",
          "name": "account",
          "type": "address"
        },
        {
          "indexed": true,
          "internalType": "address",
          "name": "sender",
          "type": "address"
        }
      ],
      "name": "RoleGranted",
      "type": "event"
    },
    {
      "anonymous": false,
      "inputs": [
        {
          "indexed": true,
          "internalType": "bytes32",
          "name": "role",
          "type": "bytes32"
        },
        {
          "indexed": true,
          "internalType": "address",
          "name": "account",
          "type": "address"
        },
        {
          "indexed": true,
          "internalType": "address",
          "name": "sender",
          "type": "address"
        }
      ],
      "name": "RoleRevoked",
      "type": "event"
    },
    {
      "anonymous": false,
      "inputs": [
        {
          "indexed": false,
          "internalType": "address",
          "name": "account",
          "type": "address"
        }
      ],
      "name": "Unpaused",
      "type": "event"
    },
    {
      "inputs": [],
      "name": "DEFAULT_ADMIN_ROLE",
      "outputs": [
        {
          "internalType": "bytes32",
          "name": "",
          "type": "bytes32"
        }
      ],
      "stateMutability": "view",
      "type": "function"
    },
    {
      "inputs": [],
      "name": "EMERGENCY_LOGGER_ROLE",
      "outputs": [
        {
          "internalType": "bytes32",
          "name": "",
          "type": "bytes32"
        }
      ],
      "stateMutability": "view",
      "type": "function"
    },
    {
      "inputs": [],
      "name": "POLICE_ROLE",
      "outputs": [
        {
          "internalType": "bytes32",
          "name": "",
          "type": "bytes32"
        }
      ],
      "stateMutability": "view",
      "type": "function"
    },
    {
      "inputs": [],
      "name": "TOURISM_ROLE",
      "outputs": [
        {
          "internalType": "bytes32",
          "name": "",
          "type": "bytes32"
        }
      ],
      "stateMutability": "view",
      "type": "function"
    },
    {
      "inputs": [
        {
          "internalType": "string",
          "name": "_touristIdHash",
          "type": "string"
        }
      ],
      "name": "getRecordsByTouristId",
      "outputs": [
        {
          "internalType": "uint256[]",
          "name": "",
          "type": "uint256[]"
        }
      ],
      "stateMutability": "view",
      "type": "function"
    },
    {
      "inputs": [
        {
          "internalType": "address",
          "name": "_wallet",
          "type": "address"
        }
      ],
      "name": "getRecordsByWallet",
      "outputs": [
        {
          "internalType": "uint256[]",
          "name": "",
          "type": "uint256[]"
        }
      ],
      "stateMutability": "view",
      "type": "function"
    },
    {
      "inputs": [
        {
          "internalType": "bytes32",
          "name": "role",
          "type": "bytes32"
        }
      ],
      "name": "getRoleAdmin",
      "outputs": [
        {
          "internalType": "bytes32",
          "name": "",
          "type": "bytes32"
        }
      ],
      "stateMutability": "view",
      "type": "function"
    },
    {
      "inputs": [
        {
          "internalType": "bytes32",
          "name": "role",
          "type": "bytes32"
        },
        {
          "internalType": "address",
          "name": "account",
          "type": "address"
        }
      ],
      "name": "grantRole",
      "outputs": [],
      "stateMutability": "nonpayable",
      "type": "function"
    },
    {
      "inputs": [
        {
          "internalType": "bytes32",
          "name": "role",
          "type": "bytes32"
        },
        {
          "internalType": "address",
          "name": "account",
          "type": "address"
        }
      ],
      "name": "hasRole",
      "outputs": [
        {
          "internalType": "bool",
          "name": "",
          "type": "bool"
        }
      ],
      "stateMutability": "view",
      "type": "function"
    },
    {
      "inputs": [],
      "name": "pause",
      "outputs": [],
      "stateMutability": "nonpayable",
      "type": "function"
    },
    {
      "inputs": [],
      "name": "paused",
      "outputs": [
        {
          "internalType": "bool",
          "name": "",
          "type": "bool"
        }
      ],
      "stateMutability": "view",
      "type": "function"
    },
    {
      "inputs": [
        {
          "internalType": "uint256",
          "name": "",
          "type": "uint256"
        }
      ],
      "name": "records",
      "outputs": [
        {
          "internalType": "uint256",
          "name": "recordId",
          "type": "uint256"
        },
        {
          "internalType": "address",
          "name": "touristWallet",
          "type": "address"
        },
        {
          "internalType": "string",
          "name": "touristIdHash",
          "type": "string"
        },
        {
          "internalType": "string",
          "name": "incidentType",
          "type": "string"
        },
        {
          "internalType": "string",
          "name": "location",
          "type": "string"
        },
        {
          "internalType": "string",
          "name": "detailsHash",
          "type": "string"
        },
        {
          "internalType": "uint256",
          "name": "timestamp",
          "type": "uint256"
        },
        {
          "internalType": "address",
          "name": "reportedBy",
          "type": "address"
        },
        {
          "internalType": "bool",
          "name": "resolved",
          "type": "bool"
        },
        {
          "internalType": "uint256",
          "name": "resolvedTimestamp",
          "type": "uint256"
        },
        {
          "internalType": "address",
          "name": "resolvedBy",
          "type": "address"
        }
      ],
      "stateMutability": "view",
      "type": "function"
    },
    {
      "inputs": [
        {
          "internalType": "bytes32",
          "name": "role",
          "type": "bytes32"
        },
        {
          "internalType": "address",
          "name": "callerConfirmation",
          "type": "address"
        }
      ],
      "name": "renounceRole",
      "outputs": [],
      "stateMutability": "nonpayable",
      "type": "function"
    },
    {
      "inputs": [
        {
          "internalType": "address",
          "name": "_touristWallet",
          "type": "address"
        },
        {
          "internalType": "string",
          "name": "_touristIdHash",
          "type": "string"
        },
        {
          "internalType": "string",
          "name": "_incidentType",
          "type": "string"
        },
        {
          "internalType": "string",
          "name": "_location",
          "type": "string"
        },
        {
          "internalType": "string",
          "name": "_detailsHash",
          "type": "string"
        }
      ],
      "name": "reportEmergency",
      "outputs": [
        {
          "internalType": "uint256",
          "name": "",
          "type": "uint256"
        }
      ],
      "stateMutability": "nonpayable",
      "type": "function"
    },
    {
      "inputs": [
        {
          "internalType": "uint256",
          "name": "_recordId",
          "type": "uint256"
        }
      ],
      "name": "resolveEmergency",
      "outputs": [],
      "stateMutability": "nonpayable",
      "type": "function"
    },
    {
      "inputs": [
        {
          "internalType": "bytes32",
          "name": "role",
          "type": "bytes32"
        },
        {
          "internalType": "address",
          "name": "account",
          "type": "address"
        }
      ],
      "name": "revokeRole",
      "outputs": [],
      "stateMutability": "nonpayable",
      "type": "function"
    },
    {
      "inputs": [
        {
          "internalType": "bytes4",
          "name": "interfaceId",
          "type": "bytes4"
        }
      ],
      "name": "supportsInterface",
      "outputs": [
        {
          "internalType": "bool",
          "name": "",
          "type": "bool"
        }
      ],
      "stateMutability": "view",
      "type": "function"
    },
    {
      "inputs": [],
      "name": "totalRecords",
      "outputs": [
        {
          "internalType": "uint256",
          "name": "",
          "type": "uint256"
        }
      ],
      "stateMutability": "view",
      "type": "function"
    },
    {
      "inputs": [
        {
          "internalType": "string",
          "name": "",
          "type": "string"
        },
        {
          "internalType": "uint256",
          "name": "",
          "type": "uint256"
        }
      ],
      "name": "touristIdToRecords",
      "outputs": [
        {
          "internalType": "uint256",
          "name": "",
          "type": "uint256"
        }
      ],
      "stateMutability": "view",
      "type": "function"
    },
    {
      "inputs": [],
      "name": "unpause",
      "outputs": [],
      "stateMutability": "nonpayable",
      "type": "function"
    },
    {
      "inputs": [
        {
          "internalType": "address",
          "name": "",
          "type": "address"
        },
        {
          "internalType": "uint256",
          "name": "",
          "type": "uint256"
        }
      ],
      "name": "walletToRecords",
      "outputs": [
        {
          "internalType": "uint256",
          "name": "",
          "type": "uint256"
        }
      ],
      "stateMutability": "view",
      "type": "function"
    }
  ],
  "bytecode": "0x60806040523480156200001157600080fd5b506001805562000023600033620000b1565b50620000507f200ed514b5617ec9ba4bf5529fb56a6f52a51e1dd328d7b77dd086400f31e73533620000b1565b506200007d7f3c897272fb756004d8a8588422a9ce6e04768b2d705bbde7a87ceb35e9b9c5d933620000b1565b50620000aa7f5b19ce4b5c8feac4ff09a5f1e6dda0c6943aa99b427c1080c3f3eb35a704442a33620000b1565b5062000160565b6000828152602081815260408083206001600160a01b038516845290915281205460ff1662000156576000838152602081815260408083206001600160a01b03861684529091529020805460ff191660011790556200010d3390565b6001600160a01b0316826001600160a01b0316847f2f8788117e7eff1d82e926ec794901d17c78024a50270940304540a733656f0d60405160405180910390a45060016200015a565b5060005b92915050565b61167c80620001706000396000f3fe608060405234801561001057600080fd5b50600436106101375760003560e01c80634d1aa4e2116100b857806391d148541161007c57806391d14854146102c6578063a217fddf146102d9578063b7502922146102e1578063d547741f146102f4578063dc13337314610307578063f8f9fde51461031a57600080fd5b80634d1aa4e2146102665780634f95d677146102795780635c975abb146102a057806380a450f8146102ab5780638456cb59146102be57600080fd5b80632f2ff15d116100ff5780632f2ff15d146101e55780632f6b1676146101fa578063344610671461022157806336568abe1461024b5780633f4ba83a1461025e57600080fd5b806301ffc9a71461013c578063125f8974146101645780632087a00e1461017b578063248a9ca3146101a25780632c694940146101c5575b600080fd5b61014f61014a366004611071565b61032d565b60405190151581526020015b60405180910390f35b61016d60035481565b60405190815260200161015b565b61016d7f3c897272fb756004d8a8588422a9ce6e04768b2d705bbde7a87ceb35e9b9c5d981565b61016d6101b03660046110a2565b60009081526020819052604090206001015490565b6101d86101d33660046110d7565b610364565b60405161015b91906110f2565b6101f86101f3366004611136565b6103d0565b005b61016d7f5b19ce4b5c8feac4ff09a5f1e6dda0c6943aa99b427c1080c3f3eb35a704442a81565b61023461022f3660046110a2565b6103fb565b60405161015b9b9a999897969594939291906111b2565b6101f8610259366004611136565b61068b565b6101f86106c3565b6101d86102743660046112f5565b6106d9565b61016d7f200ed514b5617ec9ba4bf5529fb56a6f52a51e1dd328d7b77dd086400f31e73581565b60025460ff1661014f565b61016d6102b9366004611332565b610747565b6101f8610787565b61014f6102d4366004611136565b61079a565b61016d600081565b6101f86102ef3660046110a2565b6107c3565b6101f8610302366004611136565b610a0b565b61016d610315366004611377565b610a30565b61016d610328366004611435565b610e39565b60006001600160e01b03198216637965db0b60e01b148061035e57506301ffc9a760e01b6001600160e01b03198316145b92915050565b6001600160a01b0381166000908152600560209081526040918290208054835181840281018401909452808452606093928301828280156103c457602002820191906000526020600020905b8154815260200190600101908083116103b0575b50505050509050919050565b6000828152602081905260409020600101546103eb81610e55565b6103f58383610e5f565b50505050565b60046020526000908152604090208054600182015460028301805492936001600160a01b039092169261042d9061145f565b80601f01602080910402602001604051908101604052809291908181526020018280546104599061145f565b80156104a65780601f1061047b576101008083540402835291602001916104a6565b820191906000526020600020905b81548152906001019060200180831161048957829003601f168201915b5050505050908060030180546104bb9061145f565b80601f01602080910402602001604051908101604052809291908181526020018280546104e79061145f565b80156105345780601f1061050957610100808354040283529160200191610534565b820191906000526020600020905b81548152906001019060200180831161051757829003601f168201915b5050505050908060040180546105499061145f565b80601f01602080910402602001604051908101604052809291908181526020018280546105759061145f565b80156105c25780601f10610597576101008083540402835291602001916105c2565b820191906000526020600020905b8154815290600101906020018083116105a557829003601f168201915b5050505050908060050180546105d79061145f565b80601f01602080910402602001604051908101604052809291908181526020018280546106039061145f565b80156106505780601f1061062557610100808354040283529160200191610650565b820191906000526020600020905b81548152906001019060200180831161063357829003601f168201915b50505050600683015460078401546008850154600990950154939491936001600160a01b038083169450600160a01b90920460ff169291168b565b6001600160a01b03811633146106b45760405163334bd91960e11b815260040160405180910390fd5b6106be8282610ef1565b505050565b60006106ce81610e55565b6106d6610f5c565b50565b60606006826040516106eb9190611499565b90815260408051918290036020908101832080548083028501830190935282845291908301828280156103c457602002820191906000526020600020908154815260200190600101908083116103b05750505050509050919050565b8151602081840181018051600682529282019185019190912091905280548290811061077257600080fd5b90600052602060002001600091509150505481565b600061079281610e55565b6106d6610fae565b6000918252602082815260408084206001600160a01b0393909316845291905290205460ff1690565b6000818152600460205260408120548291036108365760405162461bcd60e51b815260206004820152602760248201527f456d657267656e63794c6f6767696e673a205265636f726420646f6573206e6f6044820152661d08195e1a5cdd60ca1b60648201526084015b60405180910390fd5b6108607f200ed514b5617ec9ba4bf5529fb56a6f52a51e1dd328d7b77dd086400f31e7353361079a565b8061089057506108907f3c897272fb756004d8a8588422a9ce6e04768b2d705bbde7a87ceb35e9b9c5d93361079a565b806108c057506108c07f5b19ce4b5c8feac4ff09a5f1e6dda0c6943aa99b427c1080c3f3eb35a704442a3361079a565b61090c5760405162461bcd60e51b815260206004820152601e60248201527f456d657267656e63794c6f6767696e673a20556e617574686f72697a65640000604482015260640161082d565b610914610feb565b600082815260046020526040902060070154600160a01b900460ff16156109885760405162461bcd60e51b815260206004820152602260248201527f456d657267656e63794c6f6767696e673a20416c7265616479207265736f6c76604482015261195960f21b606482015260840161082d565b6000828152600460205260409081902060078101805460ff60a01b1916600160a01b1790554260088201819055600990910180546001600160a01b03191633908117909155915184917fb8d6f6e130ade5f99777894ed3fbf8b2820796e855b618d129cbcdd424c83e5c916109ff91815260200190565b60405180910390a35050565b600082815260208190526040902060010154610a2681610e55565b6103f58383610ef1565b6000610a5c7f200ed514b5617ec9ba4bf5529fb56a6f52a51e1dd328d7b77dd086400f31e7353361079a565b80610a8c5750610a8c7f3c897272fb756004d8a8588422a9ce6e04768b2d705bbde7a87ceb35e9b9c5d93361079a565b80610abc5750610abc7f5b19ce4b5c8feac4ff09a5f1e6dda0c6943aa99b427c1080c3f3eb35a704442a3361079a565b610b085760405162461bcd60e51b815260206004820152601e60248201527f456d657267656e63794c6f6767696e673a20556e617574686f72697a65640000604482015260640161082d565b610b10610feb565b6001600160a01b038616610b665760405162461bcd60e51b815260206004820181905260248201527f456d657267656e63794c6f6767696e673a20496e76616c69642077616c6c6574604482015260640161082d565b6000855111610bc35760405162461bcd60e51b8152602060048201526024808201527f456d657267656e63794c6f6767696e673a20496e76616c696420746f757269736044820152631d08125160e21b606482015260840161082d565b6000845111610c255760405162461bcd60e51b815260206004820152602860248201527f456d657267656e63794c6f6767696e673a20496e636964656e742074797065206044820152671c995c5d5a5c995960c21b606482015260840161082d565b6000835111610c825760405162461bcd60e51b815260206004820152602360248201527f456d657267656e63794c6f6767696e673a204c6f636174696f6e2072657175696044820152621c995960ea1b606482015260840161082d565b6000825111610cde5760405162461bcd60e51b815260206004820152602260248201527f456d657267656e63794c6f6767696e673a2044657461696c7320726571756972604482015261195960f21b606482015260840161082d565b60038054906000610cee836114b5565b909155505060035460008181526004602052604090208181556001810180546001600160a01b0319166001600160a01b038a1617905560028101610d32888261152a565b5060038101610d41878261152a565b5060048101610d50868261152a565b5060058101610d5f858261152a565b50426006828101919091556007820180546001600160a81b0319163360ff60a01b19161790556001600160a01b03891660009081526005602090815260408083208054600181018255908452919092200184905551610dbf908990611499565b908152604051908190036020908101822080546001810182556000918252919020018390556001600160a01b0389169083907fd6fc942c0e093d773bd4d43cba59137c4a20bfe76939a7bd3825dcabd622028890610e26908b908b908b90429033906115ea565b60405180910390a3509695505050505050565b6005602052816000526040600020818154811061077257600080fd5b6106d68133611011565b6000610e6b838361079a565b610ee9576000838152602081815260408083206001600160a01b03861684529091529020805460ff19166001179055610ea13390565b6001600160a01b0316826001600160a01b0316847f2f8788117e7eff1d82e926ec794901d17c78024a50270940304540a733656f0d60405160405180910390a450600161035e565b50600061035e565b6000610efd838361079a565b15610ee9576000838152602081815260408083206001600160a01b0386168085529252808320805460ff1916905551339286917ff6391f5c32d9c69d2a47ea670b442974b53935d1edc7fd64eb21e047a839171b9190a450600161035e565b610f6461104e565b6002805460ff191690557f5db9ee0a495bf2e6ff9c91a7834c1ba4fdd244a5e8aa4e537bd38aeae4b073aa335b6040516001600160a01b03909116815260200160405180910390a1565b610fb6610feb565b6002805460ff191660011790557f62e78cea01bee320cd4e420270b5ea74000d11b0c9f74754ebdbfc544b05a258610f913390565b60025460ff161561100f5760405163d93c066560e01b815260040160405180910390fd5b565b61101b828261079a565b61104a5760405163e2517d3f60e01b81526001600160a01b03821660048201526024810183905260440161082d565b5050565b60025460ff1661100f57604051638dfc202b60e01b815260040160405180910390fd5b60006020828403121561108357600080fd5b81356001600160e01b03198116811461109b57600080fd5b9392505050565b6000602082840312156110b457600080fd5b5035919050565b80356001600160a01b03811681146110d257600080fd5b919050565b6000602082840312156110e957600080fd5b61109b826110bb565b6020808252825182820181905260009190848201906040850190845b8181101561112a5783518352928401929184019160010161110e565b50909695505050505050565b6000806040838503121561114957600080fd5b82359150611159602084016110bb565b90509250929050565b60005b8381101561117d578181015183820152602001611165565b50506000910152565b6000815180845261119e816020860160208601611162565b601f01601f19169290920160200192915050565b8b81526001600160a01b038b81166020830152610160604083018190526000916111de8483018e611186565b915083820360608501526111f2828d611186565b91508382036080850152611206828c611186565b915083820360a085015261121a828b611186565b60c085019990995296871660e08401525050921515610100840152610120830191909152909116610140909101529695505050505050565b634e487b7160e01b600052604160045260246000fd5b600082601f83011261127957600080fd5b813567ffffffffffffffff8082111561129457611294611252565b604051601f8301601f19908116603f011681019082821181831017156112bc576112bc611252565b816040528381528660208588010111156112d557600080fd5b836020870160208301376000602085830101528094505050505092915050565b60006020828403121561130757600080fd5b813567ffffffffffffffff81111561131e57600080fd5b61132a84828501611268565b949350505050565b6000806040838503121561134557600080fd5b823567ffffffffffffffff81111561135c57600080fd5b61136885828601611268565b95602094909401359450505050565b600080600080600060a0868803121561138f57600080fd5b611398866110bb565b9450602086013567ffffffffffffffff808211156113b557600080fd5b6113c189838a01611268565b955060408801359150808211156113d757600080fd5b6113e389838a01611268565b945060608801359150808211156113f957600080fd5b61140589838a01611268565b9350608088013591508082111561141b57600080fd5b5061142888828901611268565b9150509295509295909350565b6000806040838503121561144857600080fd5b611451836110bb565b946020939093013593505050565b600181811c9082168061147357607f821691505b60208210810361149357634e487b7160e01b600052602260045260246000fd5b50919050565b600082516114ab818460208701611162565b9190910192915050565b6000600182016114d557634e487b7160e01b600052601160045260246000fd5b5060010190565b601f8211156106be57600081815260208120601f850160051c810160208610156115035750805b601f850160051c820191505b818110156115225782815560010161150f565b505050505050565b815167ffffffffffffffff81111561154457611544611252565b61155881611552845461145f565b846114dc565b602080601f83116001811461158d57600084156115755750858301515b600019600386901b1c1916600185901b178555611522565b600085815260208120601f198616915b828110156115bc5788860151825594840194600190910190840161159d565b50858210156115da5787850151600019600388901b60f8161c191681555b5050505050600190811b01905550565b60a0815260006115fd60a0830188611186565b828103602084015261160f8188611186565b905082810360408401526116238187611186565b606084019590955250506001600160a01b0391909116608090910152939250505056fea2646970667358221220121af4fc0066c1b4dfefd5af9729baab347ff7a7bffe82b9e3aa72df5d896fe764736f6c63430008140033",
  "linkReferences": {},
  "deployedLinkReferences": {}
}