{
  "_format": "hh-sol-artifact-1",
  "contractName": "IdentityVerification",
  "sourceName": "contracts/IdentityVerification.sol",
  "abi": [
    {
      "inputs": [],
      "stateMutability": "nonpayable",
      "type": "constructor"
    },
    {
      "inputs": [],
      "name": "AccessControlBadConfirmation",
      "type": "error"
    },
    {
      "inputs": [
        {
          "internalType": "address",
          "name": "account",
          "type": "address"
        },
        {
          "internalType": "bytes32",
          "name": "neededRole",
          "type": "bytes32"
        }
      ],
      "name": "AccessControlUnauthorizedAccount",
      "type": "error"
    },
    {
      "inputs": [],
      "name": "EnforcedPause",
      "type": "error"
    },
    {
      "inputs": [],
      "name": "ExpectedPause",
      "type": "error"
    },
    {
      "inputs": [],
      "name": "ReentrancyGuardReentrantCall",
      "type": "error"
    },
    {
      "anonymous": false,
      "inputs": [
        {
          "indexed": true,
          "internalType": "uint256",
          "name": "verificationId",
          "type": "uint256"
        },
        {
          "indexed": true,
          "internalType": "address",
          "name": "touristWallet",
          "type": "address"
        },
        {
          "indexed": false,
          "internalType": "string",
          "name": "touristIdHash",
          "type": "string"
        },
        {
          "indexed": false,
          "internalType": "string",
          "name": "verificationType",
          "type": "string"
        },
        {
          "indexed": false,
          "internalType": "uint256",
          "name": "timestamp",
          "type": "uint256"
        },
        {
          "indexed": false,
          "internalType": "address",
          "name": "verifiedBy",
          "type": "address"
        },
        {
          "indexed": false,
          "internalType": "bool",
          "name": "isValid",
          "type": "bool"
        }
      ],
      "name": "IdentityVerified",
      "type": "event"
    },
    {
      "anonymous": false,
      "inputs": [
        {
          "indexed": false,
          "internalType": "address",
          "name": "account",
          "type": "address"
        }
      ],
      "name": "Paused",
      "type": "event"
    },
    {
      "anonymous": false,
      "inputs": [
        {
          "indexed": true,
          "internalType": "bytes32",
          "name": "role",
          "type": "bytes32"
        },
        {
          "indexed": true,
          "internalType": "bytes32",
          "name": "previousAdminRole",
          "type": "bytes32"
        },
        {
          "indexed": true,
          "internalType": "bytes32",
          "name": "newAdminRole",
          "type": "bytes32"
        }
      ],
      "name": "RoleAdminChanged",
      "type": "event"
    },
    {
      "anonymous": false,
      "inputs": [
        {
          "indexed": true,
          "internalType": "bytes32",
          "name": "role",
          "type": "bytes32"
        },
        {
          "indexed": true,
          "internalType": "address",
          "name": "account",
          "type": "address"
        },
        {
          "indexed": true,
          "internalType": "address",
          "name": "sender",
          "type": "address"
        }
      ],
      "name": "RoleGranted",
      "type": "event"
    },
    {
      "anonymous": false,
      "inputs": [
        {
          "indexed": true,
          "internalType": "bytes32",
          "name": "role",
          "type": "bytes32"
        },
        {
          "indexed": true,
          "internalType": "address",
          "name": "account",
          "type": "address"
        },
        {
          "indexed": true,
          "internalType": "address",
          "name": "sender",
          "type": "address"
        }
      ],
      "name": "RoleRevoked",
      "type": "event"
    },
    {
      "anonymous": false,
      "inputs": [
        {
          "indexed": false,
          "internalType": "address",
          "name": "account",
          "type": "address"
        }
      ],
      "name": "Unpaused",
      "type": "event"
    },
    {
      "inputs": [],
      "name": "DEFAULT_ADMIN_ROLE",
      "outputs": [
        {
          "internalType": "bytes32",
          "name": "",
          "type": "bytes32"
        }
      ],
      "stateMutability": "view",
      "type": "function"
    },
    {
      "inputs": [],
      "name": "POLICE_ROLE",
      "outputs": [
        {
          "internalType": "bytes32",
          "name": "",
          "type": "bytes32"
        }
      ],
      "stateMutability": "view",
      "type": "function"
    },
    {
      "inputs": [],
      "name": "TOURISM_ROLE",
      "outputs": [
        {
          "internalType": "bytes32",
          "name": "",
          "type": "bytes32"
        }
      ],
      "stateMutability": "view",
      "type": "function"
    },
    {
      "inputs": [],
      "name": "VERIFIER_ROLE",
      "outputs": [
        {
          "internalType": "bytes32",
          "name": "",
          "type": "bytes32"
        }
      ],
      "stateMutability": "view",
      "type": "function"
    },
    {
      "inputs": [
        {
          "internalType": "bytes32",
          "name": "role",
          "type": "bytes32"
        }
      ],
      "name": "getRoleAdmin",
      "outputs": [
        {
          "internalType": "bytes32",
          "name": "",
          "type": "bytes32"
        }
      ],
      "stateMutability": "view",
      "type": "function"
    },
    {
      "inputs": [
        {
          "internalType": "string",
          "name": "_touristIdHash",
          "type": "string"
        }
      ],
      "name": "getVerificationsByTouristId",
      "outputs": [
        {
          "internalType": "uint256[]",
          "name": "",
          "type": "uint256[]"
        }
      ],
      "stateMutability": "view",
      "type": "function"
    },
    {
      "inputs": [
        {
          "internalType": "address",
          "name": "_wallet",
          "type": "address"
        }
      ],
      "name": "getVerificationsByWallet",
      "outputs": [
        {
          "internalType": "uint256[]",
          "name": "",
          "type": "uint256[]"
        }
      ],
      "stateMutability": "view",
      "type": "function"
    },
    {
      "inputs": [
        {
          "internalType": "bytes32",
          "name": "role",
          "type": "bytes32"
        },
        {
          "internalType": "address",
          "name": "account",
          "type": "address"
        }
      ],
      "name": "grantRole",
      "outputs": [],
      "stateMutability": "nonpayable",
      "type": "function"
    },
    {
      "inputs": [
        {
          "internalType": "bytes32",
          "name": "role",
          "type": "bytes32"
        },
        {
          "internalType": "address",
          "name": "account",
          "type": "address"
        }
      ],
      "name": "hasRole",
      "outputs": [
        {
          "internalType": "bool",
          "name": "",
          "type": "bool"
        }
      ],
      "stateMutability": "view",
      "type": "function"
    },
    {
      "inputs": [],
      "name": "pause",
      "outputs": [],
      "stateMutability": "nonpayable",
      "type": "function"
    },
    {
      "inputs": [],
      "name": "paused",
      "outputs": [
        {
          "internalType": "bool",
          "name": "",
          "type": "bool"
        }
      ],
      "stateMutability": "view",
      "type": "function"
    },
    {
      "inputs": [
        {
          "internalType": "bytes32",
          "name": "role",
          "type": "bytes32"
        },
        {
          "internalType": "address",
          "name": "callerConfirmation",
          "type": "address"
        }
      ],
      "name": "renounceRole",
      "outputs": [],
      "stateMutability": "nonpayable",
      "type": "function"
    },
    {
      "inputs": [
        {
          "internalType": "bytes32",
          "name": "role",
          "type": "bytes32"
        },
        {
          "internalType": "address",
          "name": "account",
          "type": "address"
        }
      ],
      "name": "revokeRole",
      "outputs": [],
      "stateMutability": "nonpayable",
      "type": "function"
    },
    {
      "inputs": [
        {
          "internalType": "bytes4",
          "name": "interfaceId",
          "type": "bytes4"
        }
      ],
      "name": "supportsInterface",
      "outputs": [
        {
          "internalType": "bool",
          "name": "",
          "type": "bool"
        }
      ],
      "stateMutability": "view",
      "type": "function"
    },
    {
      "inputs": [],
      "name": "totalVerifications",
      "outputs": [
        {
          "internalType": "uint256",
          "name": "",
          "type": "uint256"
        }
      ],
      "stateMutability": "view",
      "type": "function"
    },
    {
      "inputs": [
        {
          "internalType": "string",
          "name": "",
          "type": "string"
        },
        {
          "internalType": "uint256",
          "name": "",
          "type": "uint256"
        }
      ],
      "name": "touristIdToVerifications",
      "outputs": [
        {
          "internalType": "uint256",
          "name": "",
          "type": "uint256"
        }
      ],
      "stateMutability": "view",
      "type": "function"
    },
    {
      "inputs": [],
      "name": "unpause",
      "outputs": [],
      "stateMutability": "nonpayable",
      "type": "function"
    },
    {
      "inputs": [
        {
          "internalType": "uint256",
          "name": "",
          "type": "uint256"
        }
      ],
      "name": "verifications",
      "outputs": [
        {
          "internalType": "uint256",
          "name": "verificationId",
          "type": "uint256"
        },
        {
          "internalType": "address",
          "name": "touristWallet",
          "type": "address"
        },
        {
          "internalType": "string",
          "name": "touristIdHash",
          "type": "string"
        },
        {
          "internalType": "string",
          "name": "verificationType",
          "type": "string"
        },
        {
          "internalType": "string",
          "name": "detailsHash",
          "type": "string"
        },
        {
          "internalType": "uint256",
          "name": "timestamp",
          "type": "uint256"
        },
        {
          "internalType": "address",
          "name": "verifiedBy",
          "type": "address"
        },
        {
          "internalType": "bool",
          "name": "isValid",
          "type": "bool"
        }
      ],
      "stateMutability": "view",
      "type": "function"
    },
    {
      "inputs": [
        {
          "internalType": "address",
          "name": "_touristWallet",
          "type": "address"
        },
        {
          "internalType": "string",
          "name": "_touristIdHash",
          "type": "string"
        },
        {
          "internalType": "string",
          "name": "_verificationType",
          "type": "string"
        },
        {
          "internalType": "string",
          "name": "_detailsHash",
          "type": "string"
        },
        {
          "internalType": "bool",
          "name": "_isValid",
          "type": "bool"
        }
      ],
      "name": "verifyIdentity",
      "outputs": [
        {
          "internalType": "uint256",
          "name": "",
          "type": "uint256"
        }
      ],
      "stateMutability": "nonpayable",
      "type": "function"
    },
    {
      "inputs": [
        {
          "internalType": "address",
          "name": "",
          "type": "address"
        },
        {
          "internalType": "uint256",
          "name": "",
          "type": "uint256"
        }
      ],
      "name": "walletToVerifications",
      "outputs": [
        {
          "internalType": "uint256",
          "name": "",
          "type": "uint256"
        }
      ],
      "stateMutability": "view",
      "type": "function"
    }
  ],
  "bytecode": "0x60806040523480156200001157600080fd5b506001805562000023600033620000b1565b50620000507f0ce23c3e399818cfee81a7ab0880f714e53d7672b08df0fa62f2843416e1ea0933620000b1565b506200007d7f3c897272fb756004d8a8588422a9ce6e04768b2d705bbde7a87ceb35e9b9c5d933620000b1565b50620000aa7f5b19ce4b5c8feac4ff09a5f1e6dda0c6943aa99b427c1080c3f3eb35a704442a33620000b1565b5062000160565b6000828152602081815260408083206001600160a01b038516845290915281205460ff1662000156576000838152602081815260408083206001600160a01b03861684529091529020805460ff191660011790556200010d3390565b6001600160a01b0316826001600160a01b0316847f2f8788117e7eff1d82e926ec794901d17c78024a50270940304540a733656f0d60405160405180910390a45060016200015a565b5060005b92915050565b61130280620001706000396000f3fe608060405234801561001057600080fd5b506004361061012c5760003560e01c80638456cb59116100ad578063ac90c14011610071578063ac90c1401461028f578063b90b0a1014610298578063d547741f146102bf578063d9632f63146102d2578063e7705db6146102e557600080fd5b80638456cb59146102465780638a13abe91461024e57806391d14854146102615780639d2fa87114610274578063a217fddf1461028757600080fd5b80632f6b1676116100f45780632f6b1676146101e657806336568abe1461020d5780633f4ba83a146102205780634fe7d296146102285780635c975abb1461023b57600080fd5b806301ffc9a7146101315780632087a00e14610159578063248a9ca31461018e5780632eb1d827146101b15780632f2ff15d146101d1575b600080fd5b61014461013f366004610d37565b61030c565b60405190151581526020015b60405180910390f35b6101807f3c897272fb756004d8a8588422a9ce6e04768b2d705bbde7a87ceb35e9b9c5d981565b604051908152602001610150565b61018061019c366004610d68565b60009081526020819052604090206001015490565b6101c46101bf366004610d9d565b610343565b6040516101509190610db8565b6101e46101df366004610dfc565b6103af565b005b6101807f5b19ce4b5c8feac4ff09a5f1e6dda0c6943aa99b427c1080c3f3eb35a704442a81565b6101e461021b366004610dfc565b6103da565b6101e4610412565b610180610236366004610ecb565b610428565b60025460ff16610144565b6101e4610468565b61018061025c366004610f10565b61047b565b61014461026f366004610dfc565b610497565b610180610282366004610f3a565b6104c0565b610180600081565b61018060035481565b6102ab6102a6366004610d68565b610896565b60405161015098979695949392919061103d565b6101e46102cd366004610dfc565b610a88565b6101c46102e03660046110b6565b610aad565b6101807f0ce23c3e399818cfee81a7ab0880f714e53d7672b08df0fa62f2843416e1ea0981565b60006001600160e01b03198216637965db0b60e01b148061033d57506301ffc9a760e01b6001600160e01b03198316145b92915050565b6001600160a01b0381166000908152600560209081526040918290208054835181840281018401909452808452606093928301828280156103a357602002820191906000526020600020905b81548152602001906001019080831161038f575b50505050509050919050565b6000828152602081905260409020600101546103ca81610b1b565b6103d48383610b25565b50505050565b6001600160a01b03811633146104035760405163334bd91960e11b815260040160405180910390fd5b61040d8282610bb7565b505050565b600061041d81610b1b565b610425610c22565b50565b8151602081840181018051600682529282019185019190912091905280548290811061045357600080fd5b90600052602060002001600091509150505481565b600061047381610b1b565b610425610c74565b6005602052816000526040600020818154811061045357600080fd5b6000918252602082815260408084206001600160a01b0393909316845291905290205460ff1690565b60006104ec7f0ce23c3e399818cfee81a7ab0880f714e53d7672b08df0fa62f2843416e1ea0933610497565b8061051c575061051c7f3c897272fb756004d8a8588422a9ce6e04768b2d705bbde7a87ceb35e9b9c5d933610497565b8061054c575061054c7f5b19ce4b5c8feac4ff09a5f1e6dda0c6943aa99b427c1080c3f3eb35a704442a33610497565b6105a85760405162461bcd60e51b815260206004820152602260248201527f4964656e74697479566572696669636174696f6e3a20556e617574686f72697a604482015261195960f21b60648201526084015b60405180910390fd5b6105b0610cb1565b6001600160a01b0386166106125760405162461bcd60e51b8152602060048201526024808201527f4964656e74697479566572696669636174696f6e3a20496e76616c69642077616044820152631b1b195d60e21b606482015260840161059f565b60008551116106745760405162461bcd60e51b815260206004820152602860248201527f4964656e74697479566572696669636174696f6e3a20496e76616c696420746f6044820152671d5c9a5cdd08125160c21b606482015260840161059f565b60008451116106de5760405162461bcd60e51b815260206004820152603060248201527f4964656e74697479566572696669636174696f6e3a205665726966696361746960448201526f1bdb881d1e5c19481c995c5d5a5c995960821b606482015260840161059f565b600083511161073e5760405162461bcd60e51b815260206004820152602660248201527f4964656e74697479566572696669636174696f6e3a2044657461696c732072656044820152651c5d5a5c995960d21b606482015260840161059f565b6003805490600061074e836110f3565b909155505060035460008181526004602052604090208181556001810180546001600160a01b0319166001600160a01b038a161790556002810161079288826111a2565b50600381016107a187826111a2565b50600481016107b086826111a2565b5042600582810191909155600680830180546001600160a81b0319163360ff60a01b191617600160a01b881515021790556001600160a01b038a16600090815260209283526040808220805460018101825590835293909120909201849055905161081c908990611262565b908152604051908190036020908101822080546001810182556000918252919020018390556001600160a01b0389169083907f4c3fd4f9724b02e489b551acca6dcaf992769002022f28743a8f5edce1cae93690610883908b908b90429033908c9061127e565b60405180910390a3509695505050505050565b60046020526000908152604090208054600182015460028301805492936001600160a01b03909216926108c89061111a565b80601f01602080910402602001604051908101604052809291908181526020018280546108f49061111a565b80156109415780601f1061091657610100808354040283529160200191610941565b820191906000526020600020905b81548152906001019060200180831161092457829003601f168201915b5050505050908060030180546109569061111a565b80601f01602080910402602001604051908101604052809291908181526020018280546109829061111a565b80156109cf5780601f106109a4576101008083540402835291602001916109cf565b820191906000526020600020905b8154815290600101906020018083116109b257829003601f168201915b5050505050908060040180546109e49061111a565b80601f0160208091040260200160405190810160405280929190818152602001828054610a109061111a565b8015610a5d5780601f10610a3257610100808354040283529160200191610a5d565b820191906000526020600020905b815481529060010190602001808311610a4057829003601f168201915b5050505060058301546006909301549192916001600160a01b0381169150600160a01b900460ff1688565b600082815260208190526040902060010154610aa381610b1b565b6103d48383610bb7565b6060600682604051610abf9190611262565b90815260408051918290036020908101832080548083028501830190935282845291908301828280156103a3576020028201919060005260206000209081548152602001906001019080831161038f5750505050509050919050565b6104258133610cd7565b6000610b318383610497565b610baf576000838152602081815260408083206001600160a01b03861684529091529020805460ff19166001179055610b673390565b6001600160a01b0316826001600160a01b0316847f2f8788117e7eff1d82e926ec794901d17c78024a50270940304540a733656f0d60405160405180910390a450600161033d565b50600061033d565b6000610bc38383610497565b15610baf576000838152602081815260408083206001600160a01b0386168085529252808320805460ff1916905551339286917ff6391f5c32d9c69d2a47ea670b442974b53935d1edc7fd64eb21e047a839171b9190a450600161033d565b610c2a610d14565b6002805460ff191690557f5db9ee0a495bf2e6ff9c91a7834c1ba4fdd244a5e8aa4e537bd38aeae4b073aa335b6040516001600160a01b03909116815260200160405180910390a1565b610c7c610cb1565b6002805460ff191660011790557f62e78cea01bee320cd4e420270b5ea74000d11b0c9f74754ebdbfc544b05a258610c573390565b60025460ff1615610cd55760405163d93c066560e01b815260040160405180910390fd5b565b610ce18282610497565b610d105760405163e2517d3f60e01b81526001600160a01b03821660048201526024810183905260440161059f565b5050565b60025460ff16610cd557604051638dfc202b60e01b815260040160405180910390fd5b600060208284031215610d4957600080fd5b81356001600160e01b031981168114610d6157600080fd5b9392505050565b600060208284031215610d7a57600080fd5b5035919050565b80356001600160a01b0381168114610d9857600080fd5b919050565b600060208284031215610daf57600080fd5b610d6182610d81565b6020808252825182820181905260009190848201906040850190845b81811015610df057835183529284019291840191600101610dd4565b50909695505050505050565b60008060408385031215610e0f57600080fd5b82359150610e1f60208401610d81565b90509250929050565b634e487b7160e01b600052604160045260246000fd5b600082601f830112610e4f57600080fd5b813567ffffffffffffffff80821115610e6a57610e6a610e28565b604051601f8301601f19908116603f01168101908282118183101715610e9257610e92610e28565b81604052838152866020858801011115610eab57600080fd5b836020870160208301376000602085830101528094505050505092915050565b60008060408385031215610ede57600080fd5b823567ffffffffffffffff811115610ef557600080fd5b610f0185828601610e3e565b95602094909401359450505050565b60008060408385031215610f2357600080fd5b610f2c83610d81565b946020939093013593505050565b600080600080600060a08688031215610f5257600080fd5b610f5b86610d81565b9450602086013567ffffffffffffffff80821115610f7857600080fd5b610f8489838a01610e3e565b95506040880135915080821115610f9a57600080fd5b610fa689838a01610e3e565b94506060880135915080821115610fbc57600080fd5b50610fc988828901610e3e565b92505060808601358015158114610fdf57600080fd5b809150509295509295909350565b60005b83811015611008578181015183820152602001610ff0565b50506000910152565b60008151808452611029816020860160208601610fed565b601f01601f19169290920160200192915050565b8881526001600160a01b038881166020830152610100604083018190526000916110698483018b611011565b9150838203606085015261107d828a611011565b915083820360808501526110918289611011565b60a08501979097529490941660c08301525090151560e0909101525095945050505050565b6000602082840312156110c857600080fd5b813567ffffffffffffffff8111156110df57600080fd5b6110eb84828501610e3e565b949350505050565b60006001820161111357634e487b7160e01b600052601160045260246000fd5b5060010190565b600181811c9082168061112e57607f821691505b60208210810361114e57634e487b7160e01b600052602260045260246000fd5b50919050565b601f82111561040d57600081815260208120601f850160051c8101602086101561117b5750805b601f850160051c820191505b8181101561119a57828155600101611187565b505050505050565b815167ffffffffffffffff8111156111bc576111bc610e28565b6111d0816111ca845461111a565b84611154565b602080601f83116001811461120557600084156111ed5750858301515b600019600386901b1c1916600185901b17855561119a565b600085815260208120601f198616915b8281101561123457888601518255948401946001909101908401611215565b50858210156112525787850151600019600388901b60f8161c191681555b5050505050600190811b01905550565b60008251611274818460208701610fed565b9190910192915050565b60a08152600061129160a0830188611011565b82810360208401526112a38188611011565b604084019690965250506001600160a01b0392909216606083015215156080909101529291505056fea26469706673582212206c1ade509f94818d53ec3d3a4c34a15934a6aeaced2acdd25ee0832e7cc7580a64736f6c63430008140033",
  "linkReferences": {},
  "deployedLinkReferences": {}
}